:100000000C9459000C94D1060C9410070C948100A8
:100010000C9481000C9481000C9481000C9481005C
:100020000C9481000C9481000C9481000C9481004C
:100030000C9481000C94A0070C9481000C94810016
:100040000C94EC070C9481000C9453070C948100E1
:100050000C9481000C9481000C9481000C9481001C
:100060000C9481000C948100BE00CB00D800E50008
:10007000F200FF000C01AE02D80207033B03650348
:100080009403BE0393049804A104AE04B304BC0417
:10009000C104FF04130527053B054F0563057705DC
:1000A00047084E0855085C0863086A0871080F0A7B
:1000B000160A11241FBECFEFD8E0DEBFCDBF13E07C
:1000C000A0E0B1E0E2E1F1E202C005900D92A237BA
:1000D000B107D9F723E0A2E7B3E001C01D92A03A2F
:1000E000B207E1F710E0C8E5D0E004C02197FE01B7
:1000F0000E948C0DC735D107C9F70E9478080C946F
:100100007C100C940000089508950F9337B181E09E
:1001100090E0FC0102C0EE0FFF1F6A95E2F7BF01FD
:10012000632B67B937B1BC0102C0660F771F4A95D0
:10013000E2F7AB01432B47B947B1FC0102C0EE0F18
:10014000FF1F2A95E2F79F01242B27B927B102C090
:10015000880F991F0A95E2F7822B87B90F910895AE
:10016000DB01EC918E2F90E0FC013197E730F10537
:1001700008F05EC0EC5CFF4F0C948C0D88B1816080
:1001800088B988B18D7F88B988B18B7F88B988B1EB
:10019000877F88B9089588B18E7F88B988B18260D9
:1001A00088B988B18B7F88B988B1877F88B908956D
:1001B00088B1816088B988B1826088B988B18B7F45
:1001C00088B988B1877F88B9089588B18E7F88B94A
:1001D00088B18D7F88B988B1846088B988B1877FFC
:1001E00088B9089588B1816088B988B18D7F88B950
:1001F00088B1846088B988B1877F88B9089588B14B
:100200008E7F88B988B1826088B988B1846088B9E6
:1002100088B1877F88B9089588B1816088B988B12D
:10022000826088B988B1846088B988B1877F88B9CD
:100230000895AF92BF92CF92DF92EF92FF920F9309
:100240001F93CF93DF93EC0102960E94F60A8E0172
:10025000095F1F4FC8010E941D0A5E0188E0A80EB9
:10026000B11CC5010E94530B6E018AE0C80ED11C5F
:10027000C6010E94530B7E018CE0E80EF11CC70101
:100280000E94530BCE010E960E948D051B8A1C8A7C
:100290001D8A1E8A1F86188A198A1A8A62E0C50179
:1002A0000E94550B64E0C6010E94550B65E0C70132
:1002B0000E94550BC8010E941F0ADF91CF911F9128
:1002C0000F91FF90EF90DF90CF90BF90AF90089587
:1002D000CF93DF93EC010E960E94A005CE010C9601
:1002E0000E94540BCE010A960E94540BCE01089630
:1002F0000E94540BCE0107960E941E0ACE01029660
:100300000E94330ADF91CF910895CF93DF93FC01D0
:100310008AE0878785E0808B87E0818B138A148A47
:10032000158A168AEF01229660E071E0CE010E94E4
:100330001F0B6DE0CE010E942C0BDF91CF91089531
:10034000AF92BF92CF92DF92EF92FF920F931F93E3
:10035000CF93DF93CDB7DEB72A970FB6F894DEBF01
:100360000FBECDBF7C01FC01128A8785882311F066
:1003700091E0928B882339F0F7019089992319F045
:1003800092899260928B882351F0F701908999238A
:1003900031F09189992319F092899460928BF70139
:1003A0009089992319F022892860228B992339F0AA
:1003B000F7019189992319F092899061928BF70145
:1003C0009189992319F022892062228B882331F0A8
:1003D000992321F0F70182898064828BF701808163
:1003E0008823C9F06DE087010E5F1F4FC8010E948E
:1003F0002C0B65E171E0C8010E941F0B6DE0C80184
:100400000E942C0B69E271E0C8010E941F0B6DE095
:10041000C8010E942C0B6701FEE0CF0ED11CC60163
:100420000E948E066EE371E0C6010E946B0662E0D8
:10043000C6010E947F066CE171E0C6010E946B0656
:100440002FEF89E698E1215080409040E1F700C00D
:100450000000C6010E948E0661E371E0C6010E94A1
:100460006B0662E0C6010E947F0600E010E00730E4
:1004700011050CF046C0F701428981E090E09C0133
:10048000002E02C0220F331F0A94E2F7842F90E05F
:1004900082239323181619068CF5C80101969F93A1
:1004A0008F9385E491E09F938F93CE0101969F9364
:1004B0008F930E94920DF70180810F900F900F9003
:1004C0000F900F900F90882371F0BE016F5F7F4FE8
:1004D0005701F2E0AF0EB11CC5010E941F0B6DE089
:1004E000C5010E942C0BBE016F5F7F4FC6010E94A9
:1004F0006B066EEF71E0C6010E946B060F5F1F4F27
:10050000B6CF2FEF83ED90E3215080409040E1F78C
:1005100000C000002A960FB6F894DEBF0FBECDBF14
:10052000DF91CF911F910F91FF90EF90DF90CF90CF
:10053000BF90AF9008950F931F93CF93DF93DB018C
:10054000EC914E2F50E0FA013197E730F10508F0B9
:1005500043C1EC01E55CFF4F0C948C0D8F85882323
:1005600011F181508F8720E030E040EC5FE36B8930
:100570007C898D899E890E94810B6B8B7C8B8D8BF6
:100580009E8B8881882361F068E471E08E010E5FA4
:100590001F4FC8010E941F0B6DE0C8010E942C0B69
:1005A00081E0898319C11982CE010E94A00114C182
:1005B0008F85882339F19889992321F181508F877C
:1005C0009150988B20E030E040E050E46B897C89CA
:1005D0008D899E890E94810B6B8B7C8B8D8B9E8B72
:1005E0008881882361F06EE571E08E010E5F1F4FF8
:1005F000C8010E941F0B6DE0C8010E942C0B81E016
:100600008983EAC01A8ACE010E94A001E5C08F85C5
:10061000882361F19889992349F12989222331F1AD
:1006200081508F879150988B2150298B20E030E0AA
:1006300040E350E46B897C898D899E890E94810BFF
:100640006B8B7C8B8D8B9E8B8881882361F064E71C
:1006500071E08E010E5F1F4FC8010E941F0B6DE0FD
:10066000C8010E942C0B81E08983B6C01982CE019B
:100670000E94A001B1C08889882311F18150888B24
:1006800020E030E040E85FE36B897C898D899E89BA
:100690000E94810B6B8B7C8B8D8B9E8B888188233A
:1006A00061F06AE871E08E010E5F1F4FC8010E9481
:1006B0001F0B6DE0C8010E942C0B81E089838CC068
:1006C0001982CE010E94A00187C08889882339F150
:1006D0009989992321F18150888B9150998B26E635
:1006E00036E646EE5FE36B897C898D899E890E94A0
:1006F000810B6B8B7C8B8D8B9E8B8881882361F02B
:1007000060EA71E08E010E5F1F4FC8010E941F0B4F
:100710006DE0C8010E942C0B81E089835DC01982C5
:10072000CE010E94A00158C08989882311F181500F
:10073000898B20E030E040EC5FE36B897C898D8918
:100740009E890E94810B6B8B7C8B8D8B9E8B88810D
:10075000882361F066EB71E08E010E5F1F4FC801C8
:100760000E941F0B6DE0C8010E942C0B81E0898361
:1007700033C01982CE010E94A0012EC08F8588232C
:1007800039F19989992321F181508F879150998B63
:1007900026E636E646E050E46B897C898D899E89A1
:1007A0000E94810B6B8B7C8B8D8B9E8B8881882329
:1007B00061F06CEC71E08E010E5F1F4FC8010E946A
:1007C0001F0B6DE0C8010E942C0B81E0898304C0DF
:1007D0001982CE010E94A001DF91CF911F910F914C
:1007E00008958F929F92AF92BF92CF92DF92EF9235
:1007F000FF920F931F93CF93DF93CDB7DEB72A9766
:100800000FB6F894DEBF0FBECDBF8C01FC0183880C
:100810009488A588B688C501B4010E94ED0B6B01D0
:100820007C01072E000C880B990B0E94250C9B0164
:10083000AC01C501B4010E94800B20E030E048EC1F
:1008400052E40E94B10C0E941E0D0E94ED0B7F939A
:100850006F93DF92CF9282EE91E09F938F93CE01C0
:1008600001967C019F938F930E94920D0E5F1F4F04
:100870006DEE71E0C8010E941F0BB701C8010E9414
:100880001F0B6DE0C8010E942C0B0FB6F894DEBF61
:100890000FBECDBF2A960FB6F894DEBF0FBECDBFF8
:1008A000DF91CF911F910F91FF90EF90DF90CF904C
:1008B000BF90AF909F908F9008950F931F93CF9309
:1008C000DF938C01EC012E9660E072E0CE010E9475
:1008D0006B0662E0CE010E947F066AE072E0CE0104
:1008E0000E946B06C80107960E942F0ADF91CF91E4
:1008F0001F910F9108950F931F93CF93DF93EC01F6
:100900008B0162E172E00E960E946B06D801EC91B9
:100910008E2F90E0FC013197E730F105D0F5EE5BCA
:10092000FF4F0C948C0DCE0108960E94620B31C0D3
:10093000CE0108960E94620BCE010A960E94620BBD
:1009400028C0CE0108960E94620BCE010A960E9432
:10095000620BCE010C960E94620B1BC0CE010A9660
:100960000E94620B16C0CE010A960E94620BCE0155
:100970000C960E94620B0DC0CE010C960E94620B79
:1009800008C0CE0108960E94620BCE010C960E9410
:10099000620BDF91CF911F910F910895CF93DF9359
:1009A000EC0108960E94710BCE010A960E94710B11
:1009B000CE010C960E94710BDF91CF910895FB013F
:1009C0008081873028F4843040F4813018F003C0EF
:1009D000873009F0089581E0089580E00895CF936D
:1009E000DF93DB01EC914E2F50E0FA013197E730B5
:1009F000F10508F08FC0E75BFF4F0C948C0DEC0104
:100A00002E96CE010E948E066BE172E0CE010E940E
:100A10006B0662E0CE010E947F0665E272E0CE01C5
:100A20000E946B0677C0EC012E96CE010E948E06C6
:100A30006DE272E0CE010E946B0662E0CE010E9480
:100A40007F0667E372E0CE010E946B0663C0EC0193
:100A50002E96CE010E948E066FE372E0CE010E94B8
:100A60006B0662E0CE010E947F0665E472E0CE0173
:100A70000E946B064FC0EC012E96CE010E948E069E
:100A80006DE472E0CE010E946B0662E0CE010E942E
:100A90007F0668E572E0CE010E946B063BC0EC0168
:100AA0002E96CE010E948E0660E672E0CE010E9474
:100AB0006B0662E0CE010E947F066DE672E0CE0119
:100AC0000E946B0627C0EC012E96CE010E948E0676
:100AD00065E772E0CE010E946B0662E0CE010E94E3
:100AE0007F0665E272E0CE010E946B0613C0EC0146
:100AF0002E96CE010E948E066FE772E0CE010E9414
:100B00006B0662E0CE010E947F0667E872E0CE01CC
:100B10000E946B06DF91CF9108958AB180618AB9F6
:100B20008AB180628AB98AB180648AB98AB18068E0
:100B30008AB984B1816084B984B1826084B908952E
:100B40000895411104C085B18E7F85B903C085B178
:100B5000816085B98BB18F70962F907F892B8BB96F
:100B600035E03A95F1F7000085B1826085B985E0FE
:100B70008A95F1F7000085B18D7F85B990EF9A9540
:100B8000F1F72BB130E1639FC00111242F70822B4C
:100B90008BB985E08A95F1F7000085B1826085B94F
:100BA00095E09A95F1F7000085B18D7F85B930EF1A
:100BB0003A95F1F7411108C0643030F48FE39FE1BA
:100BC0000197F1F700C000000895CF93DF93EC0187
:100BD00085B18E7F85B985B18D7F85B92FEF89EF7E
:100BE00090E0215080409040E1F700C000008BB1C0
:100BF0008F7080638BB925E02A95F1F7000085B1ED
:100C0000826085B985E08A95F1F7000085B18D7F16
:100C100085B990EF9A95F1F78FE19EE40197F1F78E
:100C200000C0000095E09A95F1F7000085B1826060
:100C300085B925E02A95F1F7000085B18D7F85B94A
:100C400080EF8A95F1F78FE193E00197F1F700C00B
:100C5000000095E09A95F1F7000085B1826085B9B2
:100C600025E02A95F1F7000085B18D7F85B980EFE9
:100C70008A95F1F78BB18F7080628BB995E09A9568
:100C8000F1F7000085B1826085B925E02A95F1F77A
:100C9000000085B18D7F85B980EF8A95F1F740E03E
:100CA00068E2CE010E94A10540E068E0CE010E940A
:100CB000A10540E061E0CE010E94A10540E06CE0AA
:100CC000CE010E94A10540E060E8CE010E94A1058E
:100CD000DF91CF9108950F931F93CF93DF938C01F2
:100CE000EB016881662331F041E0C8010E94A10553
:100CF0002196F7CFDF91CF911F910F910895613029
:100D000019F0623031F0089540E060E80E94A105DA
:100D1000089540E060EC0E94A1050895CF93DF9311
:100D2000EC0140E061E00E94A10561E0CE010E947B
:100D30007F06DF91CF9108950F931F93CF93DF9399
:100D4000EC018B01019799F46F3F7F4F81F489E8A3
:100D500093E00E94190184E893E00E94F60A80E87B
:100D600093E00E9483008FE793E00E948D05CD2BD6
:100D700099F40F3F1F4F81F48FE793E00E94A00585
:100D800080E893E00E94840084E893E00E94330AA4
:100D900089E893E00E946801DF91CF911F910F9144
:100DA00008951F920F920FB60F9211242F933F9325
:100DB0004F935F936F937F938F939F93AF93BF9363
:100DC000EF93FF9380917C038130C9F480917E037F
:100DD000873030F480917E038F5F80937E0303C061
:100DE00081E080937E036EE773E080E893E00E94E9
:100DF000B0006EE773E089E893E00E94EF04FF9192
:100E0000EF91BF91AF919F918F917F916F915F9182
:100E10004F913F912F910F900FBE0F901F901895FB
:100E20001F920F920FB60F9211242F933F934F935F
:100E30005F936F937F938F939F93AF93BF93EF9342
:100E4000FF934A991AC06EE773E089E893E00E9425
:100E50009B0280918A03882351F08FE793E00E94E0
:100E60008E0682E080937C03109273030BC081E0B6
:100E700080937C031092740305C085E080937C030B
:100E800010927303FF91EF91BF91AF919F918F915A
:100E90007F916F915F914F913F912F910F900FBE76
:100EA0000F901F9018951F920F920FB60F9211245A
:100EB0002F933F934F935F936F937F938F939F9362
:100EC000AF93BF93EF93FF938091C600803311F4EB
:100ED00010927D03813319F491E090937D03823366
:100EE00019F482E080937D0380917D03813049F085
:100EF00018F0823061F013C089E893E00E94F1039A
:100F00000EC081E0809375038093890308C010921E
:100F100075031092890384E893E00E94330BFF91DC
:100F2000EF91BF91AF919F918F917F916F915F9161
:100F30004F913F912F910F900FBE0F901F901895DA
:100F40001F920F920FB60F9211242F933F934F933E
:100F50005F936F937F938F939F93AF93BF93EF9321
:100F6000FF93809176039091770301969093770396
:100F70008093760380917603909177038B3591056A
:100F8000D1F410927403109273036FE872E084E856
:100F900093E00E941F0B6DE084E893E00E942C0B0D
:100FA00083E080937C038FE793E00E948E0610928B
:100FB000770310927603FF91EF91BF91AF919F91CC
:100FC0008F917F916F915F914F913F912F910F90F2
:100FD0000FBE0F901F9018951F920F920FB60F9291
:100FE00011242F933F934F935F936F937F938F932E
:100FF0009F93AF93BF93EF93FF9380917A03909168
:101000007B03019690937B0380937A0320917A036C
:1010100030917B03809178039091790328173907E9
:10102000C1F46EE972E084E893E00E941F0B6DE06A
:1010300084E893E00E942C0B8FE793E00E948E06D9
:1010400084E080937C031092740310927B031092CF
:101050007A03FF91EF91BF91AF919F918F917F9113
:101060006F915F914F913F912F910F900FBE0F9015
:101070001F901895DC01EC918E2F90E0FC013197C8
:10108000E730F105A0F5E05BFF4F0C948C0D8EE688
:1010900091E09093790380937803089587EB90E033
:1010A000909379038093780308958AE790E0909372
:1010B00079038093780308958EE691E09093790305
:1010C00080937803089587EB90E090937903809361
:1010D000780308958EE691E09093790380937803E6
:1010E000089587EB90E090937903809378030895B7
:1010F0008FE793E00E94E50584B1886084B9E0EB56
:10110000F0E082E080838081806480831092B1006F
:101110008CE78093B30014BC15BC81E080936E0013
:10112000109280001092810080936F00E9E6F0E059
:101130008CE0808380818360808383E08DBB7894A2
:101140008AB18B7F8AB98AB1877F8AB987B18F7E4E
:1011500087B987B1806287B903E022E041E060E0AF
:1011600080E893E00E94850084E893E00E94330BBE
:101170008FE793E00E948E0610927C03349B49C156
:1011800088B1806288B980917C03823009F465C09F
:1011900028F4882361F08130B1F1F0CF843009F474
:1011A000C9C008F493C0853009F414C1E7CF809119
:1011B00075038823A1F06FEA72E084E893E00E944F
:1011C0001F0B6DE084E893E00E942C0B2FEF81EE63
:1011D00094E0215080409040E1F700C000008091F1
:1011E0007403811109C06EEB72E08FE793E00E94F7
:1011F0006B0681E0809374031F9B05C081E08093A0
:101200007C0310927403809175038823A1F06CEC29
:1012100072E084E893E00E941F0B6DE084E893E0A5
:101220000E942C0B2FEF81EE94E0215080409040E3
:10123000E1F700C000008091740381119FCF8FE718
:1012400093E00E948E066CED72E08FE793E00E94BF
:101250006B0681E08093740391CF8091750388239E
:10126000A1F06DEE72E084E893E00E941F0B6DE048
:1012700084E893E00E942C0B2FEF81EE94E0215044
:1012800080409040E1F700C000008091730381111D
:1012900075CF6EE773E089E893E00E94DF0488234E
:1012A00059F081E08093730389E893E00E945D0424
:1012B00082E08093810062CF8FE793E00E948E06E8
:1012C00083E080937C031092740358CF1092B10096
:1012D00010928100809175038823A1F06CEF72E079
:1012E00084E893E00E941F0B6DE084E893E00E9485
:1012F0002C0B2FEF81EE94E0215080409040E1F7DD
:1013000000C0000080917203811138CF81E080938A
:1013100072038FE793E00E948E068EE793E00E94AF
:101320003A086EE773E089E893E00E947B0485E069
:1013300085BD24CF15BC89E893E00E94CE0480913E
:101340007503882359F06CE073E084E893E00E9411
:101350001F0B6DE084E893E00E942C0B80917403D6
:1013600081110DC08FE793E00E948E066CE173E05F
:101370008FE793E00E946B0681E0809374032FEF68
:1013800081EE94E0215080409040E1F700C00000E1
:101390001F99F4CE8FE793E00E948E066AE273E015
:1013A0008FE793E00E946B062FEF83ED90E32150CF
:1013B00080409040E1F700C000008FE793E00E947A
:1013C0008E0610927C031092740310927303109295
:1013D0007203D4CE809175038823A1F063E373E098
:1013E00084E893E00E941F0B6DE084E893E00E9484
:1013F0002C0B2FEF81EE94E0215080409040E1F7DC
:1014000000C0000089E893E00E94850110927C03EF
:10141000B5CE88B18F7D88B910927C03AFCE6FEFC7
:101420007FEF81E090E00E949C0608956FEF7FEFD0
:1014300080E090E00E949C0608950895089584B18C
:10144000886084B9E0EBF0E082E080838081806492
:1014500080831092B1008CE78093B300089583E0FD
:101460008093B10008950895FC0171836083CB01DE
:10147000A0E0B0E0880F991FAA1FBB1F880F991F1B
:10148000AA1FBB1F9C01AD01220F331F441F551F14
:10149000220F331F441F551F60E074E284EF90E079
:1014A0000E946A0D215031093093C5002093C40079
:1014B0000895FC016283613019F0623039F00CC08C
:1014C000E2ECF0E08081877F80830895E2ECF0E039
:1014D0008081886080830895E2ECF0E08081877FDE
:1014E00080830895FC016383673019F128F4653027
:1014F00041F0663091F041C0683039F1693089F1CE
:101500003CC0E2ECF0E080818B7F808380818B7F28
:10151000808380818D7F80830895E2ECF0E080817C
:101520008B7F808380818B7F8083808182608083BA
:101530000895E2ECF0E080818B7F8083808184607D
:10154000808380818D7F80830895E2ECF0E080814C
:101550008B7F8083808184608083808182608083B0
:101560000895E2ECF0E08081846080838081846073
:1015700080838081826080830895E2ECF0E0808146
:101580008B7F808380818460808380818260808380
:101590000895FC0164836E3429F06F34A9F065343A
:1015A000E1F409C0E2ECF0E080818F7D80838081EE
:1015B0008F7E80830895E2ECF0E0808180628083FA
:1015C0008081806180830895E2ECF0E08081806218
:1015D000808380818F7E80830895E2ECF0E08081BB
:1015E0008F7D808380818F7E80830895CF93DF936A
:1015F000EC0160E875E20E94340A61E0CE010E94CD
:10160000590A68E0CE010E94720A6EE4CE010E947F
:10161000C90A8AB182608AB9E1ECF0E088E180838E
:10162000808180688083E2ECF0E080818F77808326
:1016300080818F7B80837894DF91CF910895FB0127
:101640009081992341F08091C00085FFFCCF909359
:10165000C6003196F5CF08958091C00085FFFCCF7C
:101660006093C6000895CF93DF93EC0166E473E0C6
:101670000E941F0B6DE0CE010E942C0B68E573E009
:10168000CE010E941F0B6DE0CE010E942C0B62E682
:1016900073E0CE010E941F0B6DE0CE010E942C0B67
:1016A000DF91CF91089508950895FC01608324B1DE
:1016B00081E090E002C0880F991F6A95E2F7822BC3
:1016C00084B9089545B121E030E0FC01008002C0FA
:1016D000220F331F0A94E2F7242B25B921E021833E
:1016E0000895FC0195B121E030E0008002C0220F96
:1016F000331F0A94E2F72095292325B91182089512
:101700005058BB27AA270E94980B0C94770C0E9474
:10171000690C38F00E94700C20F039F49F3F19F4E6
:1017200026F40C94660C0EF4E095E7FB0C94600C28
:10173000E92F0E94880C58F3BA17620773078407D1
:10174000950720F079F4A6F50C94AA0C0EF4E09518
:101750000B2EBA2FA02D0B01B90190010C01CA016B
:10176000A0011124FF27591B99F0593F50F4503E16
:1017700068F11A16F040A22F232F342F4427585F08
:10178000F3CF469537952795A795F0405395C9F720
:101790007EF41F16BA0B620B730B840BBAF09150D8
:1017A000A1F0FF0FBB1F661F771F881FC2F70EC077
:1017B000BA0F621F731F841F48F48795779567954A
:1017C000B795F7959E3F08F0B0CF9395880F08F036
:1017D0009927EE0F9795879508950E94F40B6894CA
:1017E000B1110C94AB0C08950E94900C88F09F5797
:1017F00098F0B92F9927B751B0F0E1F0660F771F35
:10180000881F991F1AF0BA95C9F714C0B13091F02A
:101810000E94AA0CB1E008950C94AA0C672F782FAF
:101820008827B85F39F0B93FCCF3869577956795EF
:10183000B395D9F73EF490958095709561957F4F5B
:101840008F4F9F4F0895E89409C097FB3EF4909501
:101850008095709561957F4F8F4F9F4F9923A9F089
:10186000F92F96E9BB279395F69587957795679518
:10187000B795F111F8CFFAF4BB0F11F460FF1BC05C
:101880006F5F7F4F8F4F9F4F16C0882311F096E9EF
:1018900011C0772321F09EE8872F762F05C066239D
:1018A00071F096E8862F70E060E02AF09A95660F56
:1018B000771F881FDAF7880F9695879597F908950F
:1018C00097F99F6780E870E060E008959FEF80ECF3
:1018D000089500240A941616170618060906089596
:1018E00000240A9412161306140605060895092EFC
:1018F0000394000C11F4882352F0BB0F40F4BF2B6B
:1019000011F460FF04C06F5F7F4F8F4F9F4F0895AA
:1019100057FD9058440F551F59F05F3F71F04795A0
:10192000880F97FB991F61F09F3F79F08795089585
:10193000121613061406551FF2CF4695F1DF08C0A4
:10194000161617061806991FF1CF869571056105C1
:1019500008940895E894BB2766277727CB0197F969
:1019600008950E94C40C0C94770C0E94690C38F006
:101970000E94700C20F0952311F00C94600C0C94D4
:10198000660C11240C94AB0C0E94880C70F3959F8C
:10199000C1F3950F50E0551F629FF001729FBB2766
:1019A000F00DB11D639FAA27F00DB11DAA1F649F02
:1019B0006627B00DA11D661F829F2227B00DA11DB5
:1019C000621F739FB00DA11D621F839FA00D611D3B
:1019D000221F749F3327A00D611D231F849F600D5C
:1019E000211D822F762F6A2F11249F5750409AF085
:1019F000F1F088234AF0EE0FFF1FBB1F661F771F11
:101A0000881F91505040A9F79E3F510580F00C94DB
:101A1000600C0C94AB0C5F3FE4F3983ED4F38695D6
:101A200077956795B795F795E7959F5FC1F7FE2B7B
:101A3000880F911D9695879597F908950E94520DEC
:101A400030F09F3710F40C94AB0C0C94290D0C94CF
:101A5000440D882371F4772321F09850872B762F3B
:101A600007C0662311F499270DC09051862B70E0B2
:101A700060E02AF09A95660F771F881FDAF7880FC3
:101A80009695879597F908959F3F31F0915020F4EE
:101A9000879577956795B795880F911D969587954A
:101AA00097F908950E94900CA0F0BEE7B91788F44A
:101AB000BB279F3860F41616B11D672F782F882733
:101AC000985FF7CF869577956795B11D9395963971
:101AD000C8F30895A1E21A2EAA1BBB1BFD010DC07D
:101AE000AA1FBB1FEE1FFF1FA217B307E407F507CE
:101AF00020F0A21BB30BE40BF50B661F771F881FAA
:101B0000991F1A9469F760957095809590959B013F
:101B1000AC01BD01CF010895EE0FFF1F0590F491B8
:101B2000E02D0994AEE0B0E0E8E9FDE00C9453103C
:101B30000D891E8986E08C831A8309838FEF9FE7C6
:101B40009E838D83AE01475E5F4F6F89788DCE0196
:101B500001960E94B40DEF81F885E00FF11F10820D
:101B60002E96E4E00C946F10ABE0B0E0EAEBFDE001
:101B70000C9445106C017B018A01FC0117821682CE
:101B8000838181FFCCC1CE0101963C01F601938196
:101B9000F70193FD859193FF81917F01882309F4DB
:101BA000BAC1853239F493FD859193FF81917F010C
:101BB000853229F4B60190E00E94AB0FE7CF912C5B
:101BC000212C312CFFE1F315D8F08B3279F038F469
:101BD000803279F08332A1F4232D20611DC08D3233
:101BE00061F0803369F4232D216016C0832D82605B
:101BF000382EE32DE4603E2E2AC0F32DF8601DC080
:101C000037FC2DC020ED280F2A3040F08E32B9F479
:101C100036FC81C1232D2064322E19C036FE06C049
:101C20008AE0989E200D1124922E11C0EAE02E9E8B
:101C3000200D1124222EF32DF0623F2E08C08C3689
:101C400021F4832D8068382E02C0883641F4F701D4
:101C500093FD859193FF81917F018111B3CF982FDF
:101C60009F7D9554933028F40C5F1F4F9FE3998319
:101C70000DC0833631F0833771F0833509F059C0D8
:101C800021C0F801808189830E5F1F4F88248394CF
:101C9000912C530113C02801F2E04F0E511CF801A2
:101CA000A080B18036FE03C0692D70E002C06FEFE6
:101CB0007FEFC5010E94A00F4C018201F32DFF7739
:101CC0003F2E16C0280122E0420E511CF801A080D0
:101CD000B18036FE03C0692D70E002C06FEF7FEF68
:101CE000C5010E94950F4C01F32DF0683F2E820133
:101CF00033FC1BC0822D90E088169906B0F4B60123
:101D000080E290E00E94AB0F2A94F4CFF50137FCFB
:101D1000859137FE81915F01B60190E00E94AB0F83
:101D200021102A9421E0821A91088114910471F7FC
:101D3000E8C0843611F0893641F5F80137FE07C056
:101D400060817181828193810C5F1F4F08C0608127
:101D50007181072E000C880B990B0E5F1F4FF32D1E
:101D6000FF763F2E97FF09C09095809570956195FD
:101D70007F4F8F4F9F4FF0683F2E2AE030E0A30146
:101D80000E94E70F882E861845C0853731F4232D31
:101D90002F7EB22E2AE030E025C0932D997FB92EF8
:101DA0008F36C1F018F4883579F0B5C0803719F056
:101DB000883721F0B0C0E92FE061BE2EB4FE0DC01F
:101DC000FB2DF460BF2E09C034FE0AC0292F266007
:101DD000B22E06C028E030E005C020E130E002C0AD
:101DE00020E132E0F801B7FE07C060817181828195
:101DF00093810C5F1F4F06C06081718180E090E08D
:101E00000E5F1F4FA3010E94E70F882E8618FB2D3F
:101E1000FF773F2E36FE0DC0232D2E7FA22E891474
:101E200058F434FE0BC032FC09C0832D8E7EA82EE0
:101E300005C0B82CA32C03C0B82C01C0B92CA4FE3B
:101E40000FC0FE01E80DF11D8081803321F49A2D31
:101E5000997EA92E09C0A2FE06C0B394B39404C013
:101E60008A2D867809F0B394A3FC11C0A0FE06C0A9
:101E7000B21488F4280C922C9B180EC0B21460F493
:101E8000B60180E290E00E94AB0FB394F7CFB2149A
:101E900018F42B1802C0982C212CA4FE10C0B601F7
:101EA00080E390E00E94AB0FA2FE17C0A1FC03C02C
:101EB00088E790E002C088E590E0B6010CC08A2D6A
:101EC000867859F0A1FE02C08BE201C080E2A7FC37
:101ED0008DE2B60190E00E94AB0F891438F4B60190
:101EE00080E390E00E94AB0F9A94F7CF8A94F301BD
:101EF000E80DF11D8081B60190E00E94AB0F8110CA
:101F0000F5CF222009F442CEB60180E290E00E9493
:101F1000AB0F2A94F6CFF6018681978102C08FEF2E
:101F20009FEF2B96E2E10C946110FC01059061504B
:101F300070400110D8F7809590958E0F9F1F0895DF
:101F4000FC016150704001900110D8F78095909588
:101F50008E0F9F1F08950F931F93CF93DF93FB0165
:101F6000238121FD03C08FEF9FEF2CC022FF16C0FD
:101F700046815781248135814217530744F4A0815B
:101F8000B1819D012F5F3F4F318320838C93268148
:101F900037812F5F3F4F3783268314C08B01EC01BD
:101FA000FB010084F185E02D0995892BE1F6D8012C
:101FB00016968D919C911797019617969C938E93E8
:101FC0001697CE01DF91CF911F910F910895FA01DD
:101FD000AA27283051F1203181F1E8946F936E7F68
:101FE0006E5F7F4F8F4F9F4FAF4FB1E03ED0B4E059
:101FF0003CD0670F781F891F9A1FA11D680F791F9A
:102000008A1F911DA11D6A0F711D811D911DA11DAA
:1020100020D009F468943F912AE0269F11243019BA
:10202000305D3193DEF6CF010895462F4770405D55
:102030004193B3E00FD0C9F7F6CF462F4F70405D04
:102040004A3318F0495D31FD4052419302D0A9F75F
:10205000EACFB4E0A6959795879577956795BA9559
:10206000C9F700976105710508959B01AC010A2E1F
:1020700006945795479537952795BA95C9F7620FF6
:10208000731F841F951FA01D08952F923F924F929A
:102090005F926F927F928F929F92AF92BF92CF92F8
:1020A000DF92EF92FF920F931F93CF93DF93CDB701
:1020B000DEB7CA1BDB0B0FB6F894DEBF0FBECDBF79
:1020C00009942A88398848885F846E847D848C844A
:1020D0009B84AA84B984C884DF80EE80FD800C8153
:1020E0001B81AA81B981CE0FD11D0FB6F894DEBF36
:1020F0000FBECDBFED01089510E0C8E5D0E004C0EB
:10210000FE010E948C0D2196C935D107C9F7F894BC
:02211000FFCFFF
:102112004D617175696E612072656162617374658A
:10212200636964610042656269646120496E646941
:1021320073706F6E6976656C004265626964617383
:1021420020446973706F6E69766569733A004265FF
:1021520062696461002564004265626964612031DC
:102162002053656C6563696F6E616461210042652D
:102172006269646120322053656C6563696F6E61C8
:102182006461210042656269646120332053656C99
:102192006563696F6E6164612100426562696461B1
:1021A20020342053656C6563696F6E616461210040
:1021B20042656269646120352053656C6563696FAD
:1021C2006E61646121004265626964612036205358
:1021D200656C6563696F6E61646121004265626965
:1021E200646120372053656C6563696F6E61646159
:1021F200210052242025642E253032640056616C61
:102202006F72204172726563616461646F3A20008B
:102212004D6F656E646F2E2E2E004167756172647C
:10222200650053657276696E646F0043616665206E
:102232005075726F00522420312E3530004D61638B
:1022420063686961746F00522420322E3030004D71
:102252006F63686100522420322E3735004C656965
:102262007465205075726F00522420312E30300078
:102272004163686F636F6C617461646F0052242004
:10228200312E38300043686F636F6C6174650043B0
:10229200686F6361666500522420322E313000700F
:1022A2006172616E646F206D6F65646F7200466566
:1022B2006368616E646F2056616C76756C6100575D
:1022C20041494E54494E4720474C41535300496EB1
:1022D20073697261206F20636F706F0053454C45C4
:1022E2004354494E47204452494E4B0053656C6556
:1022F20063696F6E6520626562696461004D494C75
:102302004C494E475F434F46464545005052455063
:102312004152494E47204452494E4B0052454D4F7F
:102322004D56494E4720474C4153530052657469FC
:102332007265206F20636F706F004F627269676110
:10234200646F0052454655454C4C494E475F4D41DE
:102352004348494E450030202D204D6F7374726101
:1023620072204C7563726F0031202D2044656275B6
:10237200670032202D2053616972204465627567BF
:02238200000059
:00000001FF
