S00B000046534D2E7372656333
S11300000C945A000C9453070C9492070C9482009D
S11300100C9482000C9482000C9482000C94820054
S11300200C9482000C9482000C9482000C94820044
S11300300C9482000C942E080C9482000C94820080
S11300400C946F080C9482000C94D5070C948200D5
S11300500C9482000C9482000C9482000C94820014
S11300600C9482000C948200BE00CB00D800E50002
S1130070F200FF000C011901BB02E502140348035E
S11300807203A103CB0315051A05230530053505B5
S11300903E05430581059505A905BD05D105E50581
S11300A0F905BF08C608CD08D408DB08E208E9084A
S11300B0FE0A050B11241FBECFEFD8E0DEBFCDBF73
S11300C013E0A0E0B1E0EAE0F3E202C005900D9293
S11300D0AC3BB107D9F723E0ACEBB3E001C01D9210
S11300E0AA3EB207E1F710E0C9E5D0E004C02197C9
S11300F0FE010E94880EC835D107C9F70E945A092B
S11301000C9478110C940000089508950F9337B15E
S113011081E090E0FC0102C0EE0FFF1F6A95E2F758
S1130120BF01632B67B937B1BC0102C0660F771FEB
S11301304A95E2F7AB01432B47B947B1FC0102C032
S1130140EE0FFF1F2A95E2F79F01242B27B927B151
S113015002C0880F991F0A95E2F7822B87B90F9185
S11301600895DB01EC918E2F90E08830910508F022
S11301706CC0FC01EC5CFF4F0C94880E88B18E7F40
S113018088B988B18D7F88B988B18B7F88B988B1E7
S1130190877F88B9089588B1816088B988B18D7FD7
S11301A088B988B18B7F88B988B1877F88B9089569
S11301B088B18E7F88B988B1826088B988B18B7F15
S11301C088B988B1877F88B9089588B1816088B972
S11301D088B1826088B988B18B7F88B988B1877FFC
S11301E088B9089588B18E7F88B988B18D7F88B920
S11301F088B1846088B988B1877F88B9089588B147
S1130200816088B988B18D7F88B988B1846088B9E4
S113021088B1877F88B9089588B18E7F88B988B1FD
S1130220826088B988B1846088B988B1877F88B9C9
S1130230089588B1816088B988B1826088B988B12D
S1130240846088B988B1877F88B90895AF92BF92D6
S1130250CF92DF92EF92FF920F931F93CF93DF938E
S1130260EC0102960E94E50B8E01095F1F4FC80145
S11302700E940C0B5E0188E0A80EB11CC5010E940F
S11302804F0C6E018AE0C80ED11CC6010E944F0CAF
S11302907E018CE0E80EF11CC7010E944F0CCE01D8
S11302A00E960E940F061B8A1C8A1D8A1E8A1F86B0
S11302B0188A198A1A8A62E0C5010E94510C64E006
S11302C0C6010E94510C65E0C7010E94510CC8018F
S11302D00E940E0BDF91CF911F910F91FF90EF9031
S11302E0DF90CF90BF90AF900895CF93DF93EC0150
S11302F00E960E942206CE010C960E94500CCE014E
S11303000A960E94500CCE0108960E94500CCE0111
S113031007960E940D0BCE0102960E94220BDF91DC
S1130320CF910895CF93DF93FC018AE0878785E01E
S1130330808B87E0818B138A148A158A168AEF01D1
S1130340229660E071E0CE010E940E0C6DE0CE01B9
S11303500E941B0CDF91CF910895AF92BF92CF9270
S1130360DF92EF92FF920F931F93CF93DF93CDB75A
S1130370DEB72A970FB6F894DEBF0FBECDBF7C015F
S1130380FC01128A8785882311F091E0928B8823DF
S113039039F0F7019089992319F092899260928B30
S11303A0882351F0F7019089992331F09189992399
S11303B019F092899460928BF7019089992319F02E
S11303C022892860228B992339F0F7019189992396
S11303D019F092899061928BF7019189992319F010
S11303E022892062228B882331F0992321F0F7019E
S11303F082898064828BF70180818823C9F06DE053
S113040087010E5F1F4FC8010E941B0C65E171E05C
S1130410C8010E940E0C6DE0C8010E941B0C69E229
S113042071E0C8010E940E0C6DE0C8010E941B0C13
S11304306701FEE0CF0ED11CC6010E9410076EE3D7
S113044071E0C6010E94ED0662E0C6010E94010748
S11304506CE171E0C6010E94ED062FEF89E698E198
S1130460215080409040E1F700C00000C6010E9486
S1130470100761E371E0C6010E94ED0662E0C60167
S11304800E94010700E010E0073011050CF046C09F
S1130490F701428981E090E09C01002E02C0220F06
S11304A0331F0A94E2F7842F90E0822393231816D3
S11304B019068CF5C80101969F938F9385E491E00A
S11304C09F938F93CE0101969F938F930E948E0EDC
S11304D0F70180810F900F900F900F900F900F9065
S11304E0882371F0BE016F5F7F4F5701F2E0AF0EBA
S11304F0B11CC5010E940E0C6DE0C5010E941B0CCD
S1130500BE016F5F7F4FC6010E94ED0660EF71E090
S1130510C6010E94ED060F5F1F4FB6CF2FEF83ED8C
S113052090E3215080409040E1F700C000002A96FB
S11305300FB6F894DEBF0FBECDBFDF91CF911F91F0
S11305400F91FF90EF90DF90CF90BF90AF90089500
S11305500F931F93CF93DF93DB01EC914E2F50E069
S1130560FA013197E730F10508F043C1EC01E45C8E
S1130570FF4F0C94880E8F85882311F181508F874B
S113058020E030E040EC5FE36B897C898D899E89B3
S11305900E947D0C6B8B7C8B8D8B9E8B888188233A
S11305A061F068E471E08E010E5F1F4FC8010E9484
S11305B00E0C6DE0C8010E941B0C81E0898319C1F7
S11305C01982CE010E94AD0114C18F85882339F1AF
S11305D09889992321F181508F879150988B20E03D
S11305E030E040E050E46B897C898D899E890E94CB
S11305F07D0C6B8B7C8B8D8B9E8B8881882361F02B
S11306006EE571E08E010E5F1F4FC8010E940E0C53
S11306106DE0C8010E941B0C81E08983EAC01A8A3C
S1130620CE010E94AD01E5C08F85882361F19889D0
S1130630992349F12989222331F181508F879150DF
S1130640988B2150298B20E030E040E350E46B8903
S11306507C898D899E890E947D0C6B8B7C8B8D8B14
S11306609E8B8881882361F064E771E08E010E5FC0
S11306701F4FC8010E940E0C6DE0C8010E941B0CA4
S113068081E08983B6C01982CE010E94AD01B1C058
S11306908889882311F18150888B20E030E040E87C
S11306A05FE36B897C898D899E890E947D0C6B8BAD
S11306B07C8B8D8B9E8B8881882361F06AE871E046
S11306C08E010E5F1F4FC8010E940E0C6DE0C80121
S11306D00E941B0C81E089838CC01982CE010E9488
S11306E0AD0187C08889882339F19989992321F13B
S11306F08150888B9150998B26E636E646EE5FE36F
S11307006B897C898D899E890E947D0C6B8B7C8B87
S11307108D8B9E8B8881882361F060EA71E08E0165
S11307200E5F1F4FC8010E940E0C6DE0C8010E94AD
S11307301B0C81E089835DC01982CE010E94AD014A
S113074058C08989882311F18150898B20E030E0D9
S113075040EC5FE36B897C898D899E890E947D0CC6
S11307606B8B7C8B8D8B9E8B8881882361F066EBF1
S113077071E08E010E5F1F4FC8010E940E0C6DE0E8
S1130780C8010E941B0C81E0898333C01982CE0109
S11307900E94AD012EC08F85882339F19989992350
S11307A021F181508F879150998B26E636E646E0F9
S11307B050E46B897C898D899E890E947D0C6B8BAA
S11307C07C8B8D8B9E8B8881882361F06CEC71E02F
S11307D08E010E5F1F4FC8010E940E0C6DE0C80110
S11307E00E941B0C81E0898304C01982CE010E94FF
S11307F0AD01DF91CF911F910F910895AF92BF92F8
S1130800CF92DF92EF92FF920F931F93CF93DF93D8
S113081000D0CDB7DEB75C018C010E5F1F4F6DE0D9
S1130820C8010E941B0C62EE71E0C8010E940E0C0C
S1130830F50187851F928F930F2EF5E4CF2EF1E0FB
S1130840DF2EF02DDF92CF92CE0101967C019F9393
S11308508F930E948E0EB701C8010E940E0C6DE0AA
S1130860C8010E941B0C62EF71E0C8010E940E0CCB
S1130870F50180891F928F93DF92CF92FF92EF92BE
S11308800E948E0EB701C8010E940E0C6DE0C801D3
S11308900E941B0C63E072E0C8010E940E0CF5017B
S11308A081891F928F93DF92CF92FF92EF920E94E1
S11308B08E0EB701C8010E940E0C6DE0C8010E94A3
S11308C01B0C0FB6F894DEBF0FBECDBF0F900F9078
S11308D0DF91CF911F910F91FF90EF90DF90CF9018
S11308E0BF90AF9008958F929F92AF92BF92CF9294
S11308F0DF92EF92FF920F931F93CF93DF93CDB7C5
S1130900DEB72A970FB6F894DEBF0FBECDBF8C01B9
S1130910FC0183889488A588B688C501B4010E9427
S1130920E90C6B017C01072E000C880B990B0E94CB
S1130930210D9B01AC01C501B4010E947C0C20E097
S113094030E048EC52E40E94AD0D0E941A0E0E9461
S1130950E90C7F936F93DF92CF9288E192E09F93AB
S11309608F93CE0101967C019F938F930E948E0EEC
S11309700E5F1F4F63E272E0C8010E940E0CB701C4
S1130980C8010E940E0C6DE0C8010E941B0C0FB63A
S1130990F894DEBF0FBECDBF2A960FB6F894DEBF23
S11309A00FBECDBFDF91CF911F910F91FF90EF90BC
S11309B0DF90CF90BF90AF909F908F9008950F934A
S11309C01F93CF93DF938C01EC012E9666E372E0C4
S11309D0CE010E94ED0662E0CE010E94010760E4B0
S11309E072E0CE010E94ED06C80107960E941E0B1C
S11309F0DF91CF911F910F9108950F931F93CF9380
S1130A00DF93EC018B0168E472E00E960E94ED0620
S1130A10D801EC918E2F90E0FC013197E730F1057D
S1130A20D0F5ED5BFF4F0C94880ECE0108960E9422
S1130A305E0C31C0CE0108960E945E0CCE010A966F
S1130A400E945E0C28C0CE0108960E945E0CCE0166
S1130A500A960E945E0CCE010C960E945E0C1BC08E
S1130A60CE010A960E945E0C16C0CE010A960E9420
S1130A705E0CCE010C960E945E0C0DC0CE010C964D
S1130A800E945E0C08C0CE0108960E945E0CCE0146
S1130A900C960E945E0CDF91CF911F910F910895E7
S1130AA0CF93DF93EC0108960E946D0CCE010A9659
S1130AB00E946D0CCE010C960E946D0CDF91CF91BB
S1130AC00895FB018081873028F4843040F481301C
S1130AD018F003C0873009F0089581E0089580E09C
S1130AE00895CF93DF93DB01EC914E2F50E0FA0190
S1130AF03197E730F10508F08FC0E65BFF4F0C94A7
S1130B00880EEC012E96CE010E94100761E572E07A
S1130B10CE010E94ED0662E0CE010E9401076BE562
S1130B2072E0CE010E94ED0677C0EC012E96CE0154
S1130B300E94100763E672E0CE010E94ED0662E0B7
S1130B40CE010E9401076DE672E0CE010E94ED061F
S1130B5063C0EC012E96CE010E94100765E772E097
S1130B60CE010E94ED0662E0CE010E9401076BE710
S1130B7072E0CE010E94ED064FC0EC012E96CE012C
S1130B800E94100763E872E0CE010E94ED0662E065
S1130B90CE010E9401076EE872E0CE010E94ED06CC
S1130BA03BC0EC012E96CE010E94100766E972E06C
S1130BB0CE010E94ED0662E0CE010E94010763EAC5
S1130BC072E0CE010E94ED0627C0EC012E96CE0104
S1130BD00E9410076BEA72E0CE010E94ED0662E00B
S1130BE0CE010E9401076BE572E0CE010E94ED0682
S1130BF013C0EC012E96CE010E94100765EB72E043
S1130C00CE010E94ED0662E0CE010E9401076DEB69
S1130C1072E0CE010E94ED06DF91CF9108958AB172
S1130C2080618AB98AB180628AB98AB180648AB9DA
S1130C308AB180688AB984B1816084B984B18260E0
S1130C4084B908950895411104C085B18E7F85B992
S1130C5003C085B1816085B98BB18F70962F907F69
S1130C60892B8BB935E03A95F1F7000085B18260A4
S1130C7085B985E08A95F1F7000085B18D7F85B946
S1130C8090EF9A95F1F72BB130E1639FC0011124E5
S1130C902F70822B8BB985E08A95F1F7000085B11E
S1130CA0826085B995E09A95F1F7000085B18D7F52
S1130CB085B930EF3A95F1F7411108C0643030F44A
S1130CC08FE39FE10197F1F700C000000895CF93EF
S1130CD0DF93EC0185B18E7F85B985B18D7F85B9B0
S1130CE02FEF89EF90E0215080409040E1F700C061
S1130CF000008BB18F7080638BB925E02A95F1F7E2
S1130D00000085B1826085B985E08A95F1F700001D
S1130D1085B18D7F85B990EF9A95F1F78FE19EE4C7
S1130D200197F1F700C0000095E09A95F1F70000F3
S1130D3085B1826085B925E02A95F1F7000085B177
S1130D408D7F85B980EF8A95F1F78FE193E0019764
S1130D50F1F700C0000095E09A95F1F7000085B125
S1130D60826085B925E02A95F1F7000085B18D7F71
S1130D7085B980EF8A95F1F78BB18F7080628BB95A
S1130D8095E09A95F1F7000085B1826085B925E078
S1130D902A95F1F7000085B18D7F85B980EF8A959A
S1130DA0F1F740E068E2CE010E94230640E068E0EB
S1130DB0CE010E94230640E061E0CE010E9423069A
S1130DC040E06CE0CE010E94230640E060E8CE01E2
S1130DD00E942306DF91CF9108950F931F93CF9321
S1130DE0DF938C01EB016881662331F041E0C80197
S1130DF00E9423062196F7CFDF91CF911F910F9187
S1130E000895613019F0623031F0089540E060E8EF
S1130E100E942306089540E060EC0E942306089592
S1130E20CF93DF93EC0140E061E00E94230661E090
S1130E30CE010E940107DF91CF9108950F931F9374
S1130E40CF93DF93EC018B01019799F46F3F7F4FB0
S1130E5081F483ED93E00E9426018EEC93E00E94DE
S1130E60E50B8AEC93E00E94840089EC93E00E94F5
S1130E700F06CD2B99F40F3F1F4F81F489EC93E0BB
S1130E800E9422068AEC93E00E9485008EEC93E097
S1130E900E94220B83ED93E00E947501DF91CF91B4
S1130EA01F910F9108951F920F920FB60F92112464
S1130EB02F933F934F935F936F937F938F939F935E
S1130EC0AF93BF93EF93FF938091C6038130C9F42E
S1130ED08091C803873030F48091C8038F5F80937A
S1130EE0C80303C081E08093C80368EC73E08AEC14
S1130EF093E00E94B10068EC73E083ED93E00E94FC
S1130F007105FF91EF91BF91AF919F918F917F9167
S1130F106F915F914F913F912F910F900FBE0F9062
S1130F201F9018951F920F920FB60F9211242F93B2
S1130F303F934F935F936F937F938F939F93AF935D
S1130F40BF93EF93FF934A991AC068EC73E083ED63
S1130F5093E00E94A8028091D403882351F089EC85
S1130F6093E00E94100782E08093C6031092BD03B1
S1130F700BC081E08093C6031092BE0305C085E0D8
S1130F808093C6031092BD03FF91EF91BF91AF917F
S1130F909F918F917F916F915F914F913F912F918D
S1130FA00F900FBE0F901F9018951F920F920FB6BF
S1130FB00F9211242F933F934F935F936F937F93DB
S1130FC08F939F93AF93BF93EF93FF938091C6004A
S1130FD0803311F41092C703813319F491E0909394
S1130FE0C703823319F492E09093C703833319F44F
S1130FF083E08093C7038091C703813059F028F0C0
S1131000823071F08330A9F018C083ED93E00E9420
S1131010730413C081E08093BF038093D3030DC096
S11310201092BF031092D3038EEC93E00E94220C23
S113103004C083ED93E00E94FE03FF91EF91BF9102
S1131040AF919F918F917F916F915F914F913F915C
S11310502F910F900FBE0F901F9018951F920F9213
S11310600FB60F9211242F933F934F935F936F9377
S11310707F938F939F93AF93BF93EF93FF9380914D
S1131080C0039091C10301969093C1038093C00360
S11310908091C0039091C1038B35910579F410922E
S11310A0BE031092BD0383E08093C60389EC93E0F2
S11310B00E9410071092C1031092C003FF91EF9198
S11310C0BF91AF919F918F917F916F915F914F915C
S11310D03F912F910F900FBE0F901F9018951F9264
S11310E00F920FB60F9211242F933F934F935F9358
S11310F06F937F938F939F93AF93BF93EF93FF93DC
S11311008091C4039091C50301969093C503809385
S1131110C4032091C4033091C5038091C20390910C
S1131120C3032817390769F489EC93E00E94100778
S113113084E08093C6031092BE031092C5031092FC
S1131140C403FF91EF91BF91AF919F918F917F91D4
S11311506F915F914F913F912F910F900FBE0F9020
S11311601F901895DC01EC918E2F90E0FC013197D3
S1131170E730F105A0F5EF5AFF4F0C94880E8EE688
S113118091E09093C3038093C203089587EB90E0AA
S11311909093C3038093C20308958AE790E09093E9
S11311A0C3038093C20308958EE691E09093C30332
S11311B08093C203089587EB90E09093C3038093D8
S11311C0C20308958EE691E09093C3038093C20313
S11311D0089587EB90E09093C3038093C20308952E
S11311E01092B1001092810015BC83ED93E00E942F
S11311F050051092C6031092BE031092BD031092C4
S1131200BC031092C5031092C4031092C30310923E
S1131210C2031092C1031092C00389EC93E00E94B0
S1131220100765EC72E089EC93E00E94ED0662E041
S113123089EC93E00E9401076EEC72E089EC93E084
S11312400E94ED062FEF83ED90E321508040904003
S1131250E1F700C0000089EC93E00E9410070895B4
S11312601092B1001092810015BC83ED93E00E94AE
S113127050051092C6031092BE031092BD03109243
S1131280BC031092C5031092C4031092C3031092BE
S1131290C2031092C1031092C00389EC93E00E9430
S11312A010071092C80368EC73E08AEC93E00E9484
S11312B0B100089589EC93E00E94670684B18860C8
S11312C084B9E0EBF0E082E08083808180648083F5
S11312D01092B1008CE78093B30014BC15BC81E07C
S11312E080936E00109280001092810080936F00B2
S11312F0E9E6F0E08CE0808380818360808383E092
S11313008DBB78948AB18B7F8AB98AB1877F8AB979
S113131087B18F7E87B987B1806287B903E022E005
S113132041E060E08AEC93E00E9486008EEC93E05A
S11313300E94220C89EC93E00E9410071092C603CD
S1131340349B56C188B1806288B98091C6038230CB
S113135009F46AC028F4882361F08130B9F1F0CF30
S1131360843009F4D6C008F49CC0853009F421C146
S1131370E7CF8091BF038823A1F067ED72E08EEC84
S113138093E00E940E0C6DE08EEC93E00E941B0C27
S11313902FEF81EE94E0215080409040E1F700C0AF
S11313A000008091BE03811109C066EE72E089ECF1
S11313B093E00E94ED0681E08093BE031F9BC0CFA3
S11313C081E08093C6031092BE03BACF8091BF031D
S11313D08823A1F064EF72E08EEC93E00E940E0C7F
S11313E06DE08EEC93E00E941B0C2FEF81EE94E0F5
S11313F0215080409040E1F700C000008091BE037E
S113140081110DC089EC93E00E94100764E073E041
S113141089EC93E00E94ED0681E08093BE031F995E
S11314208FCF0E94F0088CCF8091BF038823A1F056
S113143065E173E08EEC93E00E940E0C6DE08EEC9F
S113144093E00E941B0C2FEF81EE94E0215080402A
S11314509040E1F700C000008091BD0381111CC0E1
S113146068EC73E083ED93E00E946105882359F0F2
S113147081E08093BD0383ED93E00E94DF0482E06A
S11314808093810009C089EC93E00E94100783E0F7
S11314908093C6031092BE031F9952CF0E94F00896
S11314A04FCF1092B100109281008091BF03882326
S11314B0A1F064E273E08EEC93E00E940E0C6DE008
S11314C08EEC93E00E941B0C2FEF81EE94E02150F0
S11314D080409040E1F700C000008091BC0381117E
S11314E013C081E08093BC0389EC93E00E94100751
S11314F088EC93E00E94B20868EC73E083ED93E01B
S11315000E94FD0485E085BD1F991ACF0E94F00852
S113151017CF15BC83ED93E00E9450058091BF0363
S1131520882359F064E373E08EEC93E00E940E0C80
S11315306DE08EEC93E00E941B0C8091BE03811140
S11315400DC089EC93E00E94100764E473E089EC19
S113155093E00E94ED0681E08093BE032FEF81EEBD
S113156094E0215080409040E1F700C000001F99B2
S1131570E7CE89EC93E00E94100762E573E089EC02
S113158093E00E94ED062FEF83ED90E3215080401D
S11315909040E1F700C0000089EC93E00E9410073E
S11315A01092C6031092BE031092BD031092BC03A6
S11315B0C7CE8091BF038823A1F06BE573E08EEC66
S11315C093E00E940E0C6DE08EEC93E00E941B0CE5
S11315D02FEF81EE94E0215080409040E1F700C06D
S11315E0000083ED93E00E9492011092C603A8CEFE
S11315F088B18F7D88B90E943009A2CE6FEF7FEF4A
S113160081E090E00E941E0708956FEF7FEF80E075
S113161090E00E941E0708950895089584B188609B
S113162084B9E0EBF0E082E0808380818064808391
S11316301092B1008CE78093B300089583E0809307
S1131640B10008950895FC0171836083CB01A0E08B
S1131650B0E0880F991FAA1FBB1F880F991FAA1FEC
S1131660BB1F9C01AD01220F331F441F551F220FC6
S1131670331F441F551F60E074E284EF90E00E9422
S1131680660E215031093093C5002093C40008959B
S1131690FC016283613019F0623039F00CC0E2EC75
S11316A0F0E08081877F80830895E2ECF0E0808120
S11316B0886080830895E2ECF0E08081877F8083F6
S11316C00895FC016383673019F128F4653041F013
S11316D0663091F041C0683039F1693089F13CC01D
S11316E0E2ECF0E080818B7F808380818B7F80833C
S11316F080818D7F80830895E2ECF0E080818B7F90
S1131700808380818B7F8083808182608083089541
S1131710E2ECF0E080818B7F808380818460808331
S113172080818D7F80830895E2ECF0E080818B7F5F
S11317308083808184608083808182608083089537
S1131740E2ECF0E080818460808380818460808327
S11317508081826080830895E2ECF0E080818B7F59
S11317608083808184608083808182608083089507
S1131770FC0164836E3429F06F34A9F06534E1F41C
S113178009C0E2ECF0E080818F7D808380818F7ED0
S113179080830895E2ECF0E0808180628083808120
S11317A0806180830895E2ECF0E080818062808330
S11317B080818F7E80830895E2ECF0E080818F7DCC
S11317C0808380818F7E80830895CF93DF93EC01A3
S11317D060E875E20E94230B61E0CE010E94480B91
S11317E068E0CE010E94610B6EE4CE010E94B80B4A
S11317F08AB182608AB9E1ECF0E088E1808380817B
S113180080688083E2ECF0E080818F778083808140
S11318108F7B80837894DF91CF910895FB01908131
S1131820992341F08091C00085FFFCCF9093C600BE
S11318303196F5CF08958091C00085FFFCCF609369
S1131840C6000895CF93DF93EC016EE673E00E9427
S11318500E0C6DE0CE010E941B0C60E873E0CE011B
S11318600E940E0C6DE0CE010E941B0C6AE873E02E
S1131870CE010E940E0C6DE0CE010E941B0C69E9A2
S113188073E0CE010E940E0C6DE0CE010E941B0C91
S11318906DE0CE010E941B0CDF91CF910895089555
S11318A00895FC01608324B181E090E002C0880FB8
S11318B0991F6A95E2F7822B84B9089545B121E016
S11318C030E0FC01008002C0220F331F0A94E2F7CB
S11318D0242B25B921E021830895FC0195B121E051
S11318E030E0008002C0220F331F0A94E2F72095F3
S11318F0292325B9118208955058BB27AA270E948D
S1131900940C0C94730D0E94650D38F00E946C0DBC
S113191020F039F49F3F19F426F40C94620D0EF470
S1131920E095E7FB0C945C0DE92F0E94840D58F3BD
S1131930BA17620773078407950720F079F4A6F5B0
S11319400C94A60D0EF4E0950B2EBA2FA02D0B01CE
S1131950B90190010C01CA01A0011124FF27591BF0
S113196099F0593F50F4503E68F11A16F040A22FF6
S1131970232F342F4427585FF3CF46953795279567
S1131980A795F0405395C9F77EF41F16BA0B620B66
S1131990730B840BBAF09150A1F0FF0FBB1F661FAD
S11319A0771F881FC2F70EC0BA0F621F731F841FF0
S11319B048F4879577956795B795F7959E3F08F016
S11319C0B0CF9395880F08F09927EE0F97958795D8
S11319D008950E94F00C6894B1110C94A70D089519
S11319E00E948C0D88F09F5798F0B92F9927B75112
S11319F0B0F0E1F0660F771F881F991F1AF0BA95AF
S1131A00C9F714C0B13091F00E94A60DB1E0089559
S1131A100C94A60D672F782F8827B85F39F0B93F4B
S1131A20CCF3869577956795B395D9F73EF4909561
S1131A308095709561957F4F8F4F9F4F0895E894DF
S1131A4009C097FB3EF490958095709561957F4F02
S1131A508F4F9F4F9923A9F0F92F96E9BB279395B0
S1131A60F695879577956795B795F111F8CFFAF4C0
S1131A70BB0F11F460FF1BC06F5F7F4F8F4F9F4FF1
S1131A8016C0882311F096E911C0772321F09EE84F
S1131A90872F762F05C0662371F096E8862F70E0B5
S1131AA060E02AF09A95660F771F881FDAF7880F8F
S1131AB09695879597F9089597F99F6780E870E060
S1131AC060E008959FEF80EC089500240A941616B0
S1131AD0170618060906089500240A941216130618
S1131AE0140605060895092E0394000C11F48823A6
S1131AF052F0BB0F40F4BF2B11F460FF04C06F5FC2
S1131B007F4F8F4F9F4F089557FD9058440F551F97
S1131B1059F05F3F71F04795880F97FB991F61F06B
S1131B209F3F79F087950895121613061406551FE2
S1131B30F2CF4695F1DF08C0161617061806991F4E
S1131B40F1CF86957105610508940895E894BB2743
S1131B5066277727CB0197F908950E94C00D0C944E
S1131B60730D0E94650D38F00E946C0D20F09523D2
S1131B7011F00C945C0D0C94620D11240C94A70DBF
S1131B800E94840D70F3959FC1F3950F50E0551F8B
S1131B90629FF001729FBB27F00DB11D639FAA27BE
S1131BA0F00DB11DAA1F649F6627B00DA11D661F0D
S1131BB0829F2227B00DA11D621F739FB00DA11D2E
S1131BC0621F839FA00D611D221F749F3327A00DE8
S1131BD0611D231F849F600D211D822F762F6A2F84
S1131BE011249F5750409AF0F1F088234AF0EE0FE9
S1131BF0FF1FBB1F661F771F881F91505040A9F716
S1131C009E3F510580F00C945C0D0C94A70D5F3F32
S1131C10E4F3983ED4F3869577956795B795F79551
S1131C20E7959F5FC1F7FE2B880F911D96958795C9
S1131C3097F908950E944E0E30F09F3710F40C94DB
S1131C40A70D0C94250E0C94400E882371F4772371
S1131C5021F09850872B762F07C0662311F499271B
S1131C600DC09051862B70E060E02AF09A95660FC3
S1131C70771F881FDAF7880F9695879597F9089547
S1131C809F3F31F0915020F4879577956795B795EC
S1131C90880F911D9695879597F908950E948C0D4C
S1131CA0A0F0BEE7B91788F4BB279F3860F4161676
S1131CB0B11D672F782F8827985FF7CF8695779582
S1131CC06795B11D93959639C8F30895A1E21A2E2C
S1131CD0AA1BBB1BFD010DC0AA1FBB1FEE1FFF1FCC
S1131CE0A217B307E407F50720F0A21BB30BE40B1C
S1131CF0F50B661F771F881F991F1A9469F7609563
S1131D007095809590959B01AC01BD01CF0108951C
S1131D10EE0FFF1F0590F491E02D0994AEE0B0E0C2
S1131D20E4E9FEE00C944F110D891E8986E08C8352
S1131D301A8309838FEF9FE79E838D83AE01475EED
S1131D405F4F6F89788DCE0101960E94B00EEF81AE
S1131D50F885E00FF11F10822E96E4E00C946B11CD
S1131D60ABE0B0E0E6EBFEE00C9441116C017B01CA
S1131D708A01FC0117821682838181FFCCC1CE01C6
S1131D8001963C01F6019381F70193FD859193FF40
S1131D9081917F01882309F4BAC1853239F493FD16
S1131DA0859193FF81917F01853229F4B60190E0FA
S1131DB00E94A710E7CF912C212C312CFFE1F315C1
S1131DC0D8F08B3279F038F4803279F08332A1F490
S1131DD0232D20611DC08D3261F0803369F4232DE1
S1131DE0216016C0832D8260382EE32DE4603E2EE0
S1131DF02AC0F32DF8601DC037FC2DC020ED280F3C
S1131E002A3040F08E32B9F436FC81C1232D20648F
S1131E10322E19C036FE06C08AE0989E200D112489
S1131E20922E11C0EAE02E9E200D1124222EF32DB5
S1131E30F0623F2E08C08C3621F4832D8068382E42
S1131E4002C0883641F4F70193FD859193FF819197
S1131E507F018111B3CF982F9F7D9554933028F43F
S1131E600C5F1F4F9FE399830DC0833631F0833796
S1131E7071F0833509F059C021C0F801808189834C
S1131E800E5F1F4F88248394912C530113C02801A3
S1131E90F2E04F0E511CF801A080B18036FE03C061
S1131EA0692D70E002C06FEF7FEFC5010E949C10A6
S1131EB04C018201F32DFF773F2E16C0280122E04A
S1131EC0420E511CF801A080B18036FE03C0692D7A
S1131ED070E002C06FEF7FEFC5010E9491104C01CA
S1131EE0F32DF0683F2E820133FC1BC0822D90E05D
S1131EF088169906B0F4B60180E290E00E94A7101B
S1131F002A94F4CFF50137FC859137FE81915F0166
S1131F10B60190E00E94A71021102A9421E0821AB1
S1131F2091088114910471F7E8C0843611F0893660
S1131F3041F5F80137FE07C0608171818281938188
S1131F400C5F1F4F08C060817181072E000C880B45
S1131F50990B0E5F1F4FF32DFF763F2E97FF09C09D
S1131F6090958095709561957F4F8F4F9F4FF06846
S1131F703F2E2AE030E0A3010E94E310882E861849
S1131F8045C0853731F4232D2F7EB22E2AE030E070
S1131F9025C0932D997FB92E8F36C1F018F488355A
S1131FA079F0B5C0803719F0883721F0B0C0E92F37
S1131FB0E061BE2EB4FE0DC0FB2DF460BF2E09C03F
S1131FC034FE0AC0292F2660B22E06C028E030E075
S1131FD005C020E130E002C020E132E0F801B7FEA4
S1131FE007C060817181828193810C5F1F4F06C09D
S1131FF06081718180E090E00E5F1F4FA3010E9419
S1132000E310882E8618FB2DFF773F2E36FE0DC079
S1132010232D2E7FA22E891458F434FE0BC032FCDB
S113202009C0832D8E7EA82E05C0B82CA32C03C016
S1132030B82C01C0B92CA4FE0FC0FE01E80DF11D9F
S11320408081803321F49A2D997EA92E09C0A2FEA5
S113205006C0B394B39404C08A2D867809F0B3946F
S1132060A3FC11C0A0FE06C0B21488F4280C922C64
S11320709B180EC0B21460F4B60180E290E00E9496
S1132080A710B394F7CFB21418F42B1802C0982CED
S1132090212CA4FE10C0B60180E390E00E94A7109A
S11320A0A2FE17C0A1FC03C088E790E002C088E547
S11320B090E0B6010CC08A2D867859F0A1FE02C0CA
S11320C08BE201C080E2A7FC8DE2B60190E00E94A1
S11320D0A710891438F4B60180E390E00E94A71099
S11320E09A94F7CF8A94F301E80DF11D8081B6012B
S11320F090E00E94A7108110F5CF222009F442CE6F
S1132100B60180E290E00E94A7102A94F6CFF6016F
S11321108681978102C08FEF9FEF2B96E2E10C94AA
S11321205D11FC010590615070400110D8F7809555
S113213090958E0F9F1F0895FC016150704001908F
S11321400110D8F7809590958E0F9F1F08950F93D7
S11321501F93CF93DF93FB01238121FD03C08FEFF6
S11321609FEF2CC022FF16C0468157812481358100
S11321704217530744F4A081B1819D012F5F3F4F63
S1132180318320838C93268137812F5F3F4F3783A0
S1132190268314C08B01EC01FB010084F185E02D42
S11321A00995892BE1F6D80116968D919C91179784
S11321B0019617969C938E931697CE01DF91CF913B
S11321C01F910F910895FA01AA27283051F1203167
S11321D081F1E8946F936E7F6E5F7F4F8F4F9F4FB7
S11321E0AF4FB1E03ED0B4E03CD0670F781F891FF9
S11321F09A1FA11D680F791F8A1F911DA11D6A0FC7
S1132200711D811D911DA11D20D009F468943F9179
S11322102AE0269F11243019305D3193DEF6CF0178
S11322200895462F4770405D4193B3E00FD0C9F73E
S1132230F6CF462F4F70405D4A3318F0495D31FDAB
S11322404052419302D0A9F7EACFB4E0A6959795FE
S1132250879577956795BA95C9F7009761057105D4
S113226008959B01AC010A2E06945795479537951E
S11322702795BA95C9F7620F731F841F951FA01D78
S113228008952F923F924F925F926F927F928F9216
S11322909F92AF92BF92CF92DF92EF92FF920F93F1
S11322A01F93CF93DF93CDB7DEB7CA1BDB0B0FB6FB
S11322B0F894DEBF0FBECDBF09942A8839884888B8
S11322C05F846E847D848C849B84AA84B984C8844E
S11322D0DF80EE80FD800C811B81AA81B981CE0F45
S11322E0D11D0FB6F894DEBF0FBECDBFED0108952A
S11322F010E0C9E5D0E004C0FE010E94880E2196DA
S10D2300CA35D107C9F7F894FFCFDE
S113230A4D617175696E612072656162617374658C
S113231A636964610042656269646120496E646943
S113232A73706F6E6976656C004265626964617385
S113233A20446973706F6E69766569733A00426501
S113234A62696461002564004265626964612031DE
S113235A2053656C6563696F6E616461210042652F
S113236A6269646120322053656C6563696F6E61CA
S113237A6461210042656269646120332053656C9B
S113238A6563696F6E6164612100426562696461B3
S113239A20342053656C6563696F6E616461210042
S11323AA42656269646120352053656C6563696FAF
S11323BA6E6164612100426562696461203620535A
S11323CA656C6563696F6E61646121004265626967
S11323DA646120372053656C6563696F6E6164615B
S11323EA2100436166652072657374616E74653A8F
S11323FA20004C656974652072657374616E746536
S113240A3A200043686F636F6C6174652072657368
S113241A74616E74653A200052242025642E253096
S113242A32640056616C6F72204172726563616432
S113243A61646F3A20004D6F656E646F2E2E2E0014
S113244A416775617264650053657276696E646F7B
S113245A0043616665205075726F00522420312E44
S113246A3530004D616363686961746F00522420DA
S113247A322E3030004D6F63686100522420322EB0
S113248A3735004C65697465205075726F005224A3
S113249A20312E3030004163686F636F6C61746160
S11324AA646F00522420312E38300043686F636F02
S11324BA6C6174650043686F636166650052242029
S11324CA322E31300050726F636573736F0041624C
S11324DA6F727461646F005741494E54494E4720E4
S11324EA474C41535300496E73697261206F2063EC
S11324FA6F706F0053454C454354494E472044522C
S113250A494E4B0053656C6563696F6E652062655D
S113251A62696461004D494C4C494E475F434F46DA
S113252A46454500505245504152494E472044526F
S113253A494E4B0052454D4F4D56494E4720474C44
S113254A41535300526574697265206F20636F703A
S113255A6F004F6272696761646F00524546554560
S113256A4C4C494E475F4D414348494E4500302043
S113257A2D204D6F7374726172204C7563726F00F3
S113258A31202D2044656275670032202D20536165
S113259A69722044656275670033202D204D6F737C
S11325AA7472617220496E6772656469656E7465D6
S10F25BA732052657374616E74657300C5
S9030000FC
