S00B000046534D2E7372656333
S11300000C945A000C9487090C94C6090C94820031
S11300100C9482000C9482000C9482000C94820054
S11300200C9482000C9482000C9482000C94820044
S11300300C9482000C94620A0C9482000C9482004A
S11300400C94A30A0C9482000C94090A0C94820068
S11300500C9482000C9482000C9482000C94820014
S11300600C9482000C948200BE00CB00D800E50002
S1130070F200FF000C0119016003A003FB037204EA
S1130080B2040D054D0549074E0757076407690774
S113009072077707B507C907DD07F10705081908CF
S11300A02D08F30AFA0A010B080B0F0B160B1D0B94
S11300B0320D390D11241FBECFEFD8E0DEBFCDBF06
S11300C013E0A0E0B1E0E4ECF7E202C005900D9289
S11300D0AC3BB107D9F723E0ACEBB3E001C01D9210
S11300E0A33FB207E1F710E0C9E5D0E004C02197CF
S11300F0FE010E94E510C835D107C9F70E948E0B96
S11301000C94D5130C940000089508950F9337B1FF
S113011081E090E0FC0102C0EE0FFF1F6A95E2F758
S1130120BF01632B67B937B1BC0102C0660F771FEB
S11301304A95E2F7AB01432B47B947B1FC0102C032
S1130140EE0FFF1F2A95E2F79F01242B27B927B151
S113015002C0880F991F0A95E2F7822B87B90F9185
S11301600895DB01EC918E2F90E08830910508F022
S11301706CC0FC01EC5CFF4F0C94E51088B18E7FE1
S113018088B988B18D7F88B988B18B7F88B988B1E7
S1130190877F88B9089588B1816088B988B18D7FD7
S11301A088B988B18B7F88B988B1877F88B9089569
S11301B088B18E7F88B988B1826088B988B18B7F15
S11301C088B988B1877F88B9089588B1816088B972
S11301D088B1826088B988B18B7F88B988B1877FFC
S11301E088B9089588B18E7F88B988B18D7F88B920
S11301F088B1846088B988B1877F88B9089588B147
S1130200816088B988B18D7F88B988B1846088B9E4
S113021088B1877F88B9089588B18E7F88B988B1FD
S1130220826088B988B1846088B988B1877F88B9C9
S1130230089588B1816088B988B1826088B988B12D
S1130240846088B988B1877F88B90895AF92BF92D6
S1130250CF92DF92EF92FF920F931F93CF93DF938E
S1130260EC0102960E94190E8E01095F1F4FC8010E
S11302700E94400D5E0188E0A80EB11CC5010E94D9
S1130280830E6E018AE0C80ED11CC6010E94830E43
S11302907E018CE0E80EF11CC7010E94830ECE01A2
S11302A00E960E9443081C8E1D8E1E8E1F8E1F8666
S11302B0188A198A1A8A1B8A1C8A1D8A1E8A1F8A0E
S11302C0188E198E1A8E1B8E62E0C5010E94850E4F
S11302D064E0C6010E94850E65E0C7010E94850E98
S11302E0C8010E94420DDF91CF911F910F91FF90A1
S11302F0EF90DF90CF90BF90AF900895CF93DF93AE
S1130300EC010E960E945608CE010C960E94840EB3
S1130310CE010A960E94840ECE0108960E94840E95
S1130320CE0107960E94410DCE0102960E94560D01
S1130330DF91CF910895CF93DF93FC0180E090E0AB
S1130340A0E2B1E48787908BA18BB28B80E090E030
S1130350A0EAB0E4838B948BA58BB68B80E090E00D
S1130360A0EEB0E4878B908FA18FB28F148E158E80
S1130370168E178EEF01229660E071E0CE010E9486
S1130380420E6DE0CE010E944F0EDF91CF91089591
S11303904F925F926F927F928F929F92AF92BF9291
S11303A0CF92DF92EF92FF920F931F93CF93DF933D
S11303B0CDB7DEB72A970FB6F894DEBF0FBECDBF18
S11303C07C01FC01138E87849088A188B28820E088
S11303D030E040E85FE3C501B4010E94E10F8823E7
S11303E01CF081E0F701838F20E030E040E05FE320
S11303F0C501B4010E94E10F88238CF0F7016389E1
S113040074898589968920E030E040E05FE30E94AA
S1130410E10F882324F0F701838D8260838F23EC1E
S113042035EF48EA5EE3C501B4010E94E10F882379
S1130430F4F0F701638974898589968923EC35EF93
S113044048EA5EE30E94E10F88238CF0F701678994
S1130450708D818D928D23EC35EF48EA5EE30E9426
S1130460E10F882324F0F701838D8460838FF701E3
S1130470438854886588768820E030E040E85FE36C
S1130480C301B2010E94E10F882324F0F701838D98
S11304908860838F20E030E040E05FE3C301B20175
S11304A00E94E10F88238CF0F7016789708D818D9C
S11304B0928D20E030E040E05FE30E94E10F88236A
S11304C024F0F701838D8061838FF7014788508C76
S11304D0618C728C20E030E040E85FE3C301B2013C
S11304E00E94E10F882324F0F701838D8062838FBB
S11304F020E030E040E05FE3C501B4010E94E10F79
S1130500882374F020E030E040E05FE3C301B201EF
S11305100E94E10F882324F0F701838D8064838F88
S1130520F70180818823C9F06DE087010E5F1F4FBA
S1130530C8010E944F0E65E171E0C8010E94420E9D
S11305406DE0C8010E944F0E69E271E0C8010E948B
S1130550420E6DE0C8010E944F0E6701FEE0CF0E0F
S1130560D11CC6010E9444096EE371E0C6010E94D9
S1130570210962E0C6010E9435096CE171E0C601FF
S11305800E9421092FEF89E698E121508040904094
S1130590E1F700C00000C6010E94440961E371E074
S11305A0C6010E94210962E0C6010E94350900E0EB
S11305B010E0073011050CF046C0F701438D81E0CF
S11305C090E09C01002E02C0220F331F0A94E2F730
S11305D0842F90E082239323181619068CF5C80102
S11305E001969F938F9385E491E09F938F93CE011F
S11305F001969F938F930E94EB10F70180810F90D7
S11306000F900F900F900F900F90882371F0BE0100
S11306106F5F7F4F5701F2E0AF0EB11CC5010E941E
S1130620420E6DE0C5010E944F0EBE016F5F7F4F09
S1130630C6010E94210960EF71E0C6010E942109F0
S11306400F5F1F4FB6CF2FEF83ED90E32150804013
S11306509040E1F700C000002A960FB6F894DEBF80
S11306600FBECDBFDF91CF911F910F91FF90EF90FF
S1130670DF90CF90BF90AF909F908F907F906F90BE
S11306805F904F9008954F925F926F927F928F92F6
S11306909F92AF92BF92CF92DF92EF92FF92CF934D
S11306A0DF93DB01EC914E2F50E0FA013197E730F4
S11306B0F10508F04CC2EC01E45CFF4F0C94E5102A
S11306C0CF84D888E988FA8820E030E040E85FE306
S11306D0C701B6010E94E10F88236CF120E030E0ED
S11306E040E85FE3C701B6010E94B00E6F87788BC4
S11306F0898B9A8B20E030E040EC5FE36C8D7D8D3C
S11307008E8D9F8D0E94B10E6C8F7D8F8E8F9F8FEB
S11307108881882369F068E471E07E01B2E0EB0E21
S1130720F11CC7010E94420E6DE0C7010E944F0EEA
S113073081E089830CC21982CE010E94C80107C2DC
S1130740CF84D888E988FA8820E030E040E05FE38D
S1130750C701B6010E94E10F88230CF447C08B88BF
S11307609C88AD88BE8820E030E040E05FE3C501AE
S1130770B4010E94E10F1816CCF520E030E040E00F
S11307805FE3C701B6010E94B00E6F87788B898B37
S11307909A8B20E030E040E05FE3C501B4010E94A1
S11307A0B00E6B8B7C8B8D8B9E8B20E030E040E019
S11307B050E46C8D7D8D8E8D9F8D0E94B10E6C8F5B
S11307C07D8F8E8F9F8F8881882369F06EE571E01D
S11307D07E0182E0E80EF11CC7010E94420E6DE02A
S11307E0C7010E944F0E81E08983B1C11B8ECE01E7
S11307F00E94C801ACC1CF84D888E988FA8823EC68
S113080035EF48EA5EE3C701B6010E94E10F882391
S11308100CF463C08B889C88AD88BE8823EC35EFCC
S113082048EA5EE3C501B4010E94E10F88230CF499
S113083054C04F88588C698C7A8C23EC35EF48EA85
S11308405EE3C301B2010E94E10F88230CF445C0AA
S113085023EC35EF48EA5EE3C701B6010E94B00E0F
S11308606F87788B898B9A8B23EC35EF48EA5EE3AC
S1130870C501B4010E94B00E6B8B7C8B8D8B9E8B5B
S113088023EC35EF48EA5EE3C301B2010E94B00EE7
S11308906F8B788F898F9A8F20E030E040E350E4AB
S11308A06C8D7D8D8E8D9F8D0E94B10E6C8F7D8F92
S11308B08E8F9F8F8881882369F064E771E07E01C1
S11308C0A2E0EA0EF11CC7010E94420E6DE0C701CE
S11308D00E944F0E81E089833AC11982CE010E94A1
S11308E0C80135C1CB88DC88ED88FE8820E030E083
S11308F040E85FE3C701B6010E94E10F88236CF171
S113090020E030E040E85FE3C701B6010E94B00E8A
S11309106B8B7C8B8D8B9E8B20E030E040E85FE31B
S11309206C8D7D8D8E8D9F8D0E94B10E6C8F7D8F11
S11309308E8F9F8F8881882369F06AE871E07E0139
S1130940B2E0EB0EF11CC7010E94420E6DE0C7013C
S11309500E944F0E81E08983FAC01982CE010E9461
S1130960C801F5C0CB88DC88ED88FE8820E030E043
S113097040E05FE3C701B6010E94E10F88230CF455
S113098047C08F88988CA98CBA8C20E030E040E076
S11309905FE3C501B4010E94E10F8823CCF120E09C
S11309A030E040E05FE3C701B6010E94B00E6B8BFC
S11309B07C8B8D8B9E8B20E030E040E05FE3C501B3
S11309C0B4010E94B00E6F8B788F898F9A8F26E6C0
S11309D036E646EE5FE36C8D7D8D8E8D9F8D0E9495
S11309E0B10E6C8F7D8F8E8F9F8F8881882369F0E5
S11309F060EA71E07E0182E0E80EF11CC7010E940A
S1130A00420E6DE0C7010E944F0E81E089839FC0B2
S1130A101982CE010E94C8019AC0CF88D88CE98C73
S1130A20FA8C20E030E040E85FE3C701B6010E94A1
S1130A30E10F88236CF120E030E040E85FE3C70178
S1130A40B6010E94B00E6F8B788F898F9A8F20E049
S1130A5030E040EC5FE36C8D7D8D8E8D9F8D0E9428
S1130A60B10E6C8F7D8F8E8F9F8F8881882369F064
S1130A7066EB71E07E01A2E0EA0EF11CC7010E9460
S1130A80420E6DE0C7010E944F0E81E089835FC072
S1130A901982CE010E94C8015AC0CF84D888E9883F
S1130AA0FA8820E030E040E05FE3C701B6010E942D
S1130AB0E10F88230CF447C08F88988CA98CBA8CDA
S1130AC020E030E040E05FE3C501B4010E94E10FA3
S1130AD08823CCF120E030E040E05FE3C701B601B9
S1130AE00E94B00E6F87788B898B9A8B20E030E060
S1130AF040E05FE3C501B4010E94B00E6F8B788FB4
S1130B00898F9A8F26E636E646E050E46C8D7D8D1B
S1130B108E8D9F8D0E94B10E6C8F7D8F8E8F9F8FD7
S1130B208881882369F06CEC71E07E01B2E0EB0E01
S1130B30F11CC7010E94420E6DE0C7010E944F0ED6
S1130B4081E0898304C01982CE010E94C801DF912B
S1130B50CF91FF90EF90DF90CF90BF90AF909F9098
S1130B608F907F906F905F904F9008952F923F9257
S1130B704F925F926F927F928F929F92AF92BF92A9
S1130B80CF92DF92EF92FF920F931F93CF93DF9355
S1130B90CDB7DEB72A970FB6F894DEBF0FBECDBF30
S1130BA01C018C010E5F1F4F6DE0C8010E944F0EA7
S1130BB062EE71E0C8010E94420EF10187849088C0
S1130BC0A188B288C501B4010E941D0F6B017C018C
S1130BD0072E000C880B990B0E94550F9B01AC014A
S1130BE0C501B4010E94B00E20E030E048EC52E4AC
S1130BF00E94E60F0E9453100E941D0F7F936F9373
S1130C00DF92CF920F2EFBE1CF2EF2E0DF2EF02DFC
S1130C10DF92CF92CE0101967C019F938F930E9425
S1130C20EB10B701C8010E94420E6DE0C8010E949A
S1130C304F0E62EF71E0C8010E94420EF101438839
S1130C40548865887688C301B2010E941D0F4B0148
S1130C505C01072E000C880B990B0E94550F9B0119
S1130C60AC01C301B2010E94B00E20E030E048ECB8
S1130C7052E40E94E60F0E9453100E941D0F7F93BE
S1130C806F939F928F92DF92CF92FF92EF920E9486
S1130C90EB10B701C8010E94420E6DE0C8010E942A
S1130CA04F0E63E072E0C8010E94420EF1014788D2
S1130CB0508C618C728CC301B2010E941D0F4B01D8
S1130CC05C01072E000C880B990B0E94550F9B01A9
S1130CD0AC01C301B2010E94B00E20E030E048EC48
S1130CE052E40E94E60F0E9453100E941D0F7F934E
S1130CF06F939F928F92DF92CF92FF92EF920E9416
S1130D00EB10B701C8010E94420E6DE0C8010E94B9
S1130D104F0E0FB6F894DEBF0FBECDBF2A960FB6A6
S1130D20F894DEBF0FBECDBFDF91CF911F910F911D
S1130D30FF90EF90DF90CF90BF90AF909F908F90F7
S1130D407F906F905F904F903F902F9008958F9277
S1130D509F92AF92BF92CF92DF92EF92FF920F9346
S1130D601F93CF93DF93CDB7DEB72A970FB6F894CE
S1130D70DEBF0FBECDBF8C01FC01848C958CA68C8C
S1130D80B78CC501B4010E941D0F6B017C01072EB5
S1130D90000C880B990B0E94550F9B01AC01C501F7
S1130DA0B4010E94B00E20E030E048EC52E40E940E
S1130DB0E60F0E9453100E941D0F7F936F93DF92E2
S1130DC0CF9288E192E09F938F93CE0101967C01AC
S1130DD09F938F930E94EB100E5F1F4F63E272E0AC
S1130DE0C8010E94420EB701C8010E94420E6DE084
S1130DF0C8010E944F0E0FB6F894DEBF0FBECDBFE0
S1130E002A960FB6F894DEBF0FBECDBFDF91CF9107
S1130E101F910F91FF90EF90DF90CF90BF90AF9014
S1130E209F908F9008950F931F93CF93DF938C011E
S1130E30EC012E9666E372E0CE010E94210962E085
S1130E40CE010E94350960E472E0CE010E942109BE
S1130E50C80107960E94520DDF91CF911F910F9107
S1130E6008950F931F93CF93DF93EC018B0168E4F4
S1130E7072E00E960E942109D801EC918E2F90E029
S1130E80FC013197E730F105D0F5ED5BFF4F0C9491
S1130E90E510CE0108960E94920E31C0CE0108964C
S1130EA00E94920ECE010A960E94920E28C0CE0194
S1130EB008960E94920ECE010A960E94920ECE01CE
S1130EC00C960E94920E1BC0CE010A960E94920EAE
S1130ED016C0CE010A960E94920ECE010C960E9474
S1130EE0920E0DC0CE010C960E94920E08C0CE0147
S1130EF008960E94920ECE010C960E94920EDF91EB
S1130F00CF911F910F910895CF93DF93EC01089631
S1130F100E94A10ECE010A960E94A10ECE010C964B
S1130F200E94A10EDF91CF910895FB01808187304B
S1130F3028F4843040F4813018F003C0873009F07D
S1130F40089581E0089580E00895CF93DF93DB0155
S1130F50EC914E2F50E0FA013197E730F10508F09B
S1130F608FC0E65BFF4F0C94E510EC012E96CE018A
S1130F700E94440961E572E0CE010E94210962E009
S1130F80CE010E9435096BE572E0CE010E94210971
S1130F9077C0EC012E96CE010E94440963E672E00C
S1130FA0CE010E94210962E0CE010E9435096DE65E
S1130FB072E0CE010E94210963C0EC012E96CE019D
S1130FC00E94440965E772E0CE010E94210962E0B3
S1130FD0CE010E9435096BE772E0CE010E9421091F
S1130FE04FC0EC012E96CE010E94440963E872E0E2
S1130FF0CE010E94210962E0CE010E9435096EE80B
S113100072E0CE010E9421093BC0EC012E96CE0174
S11310100E94440966E972E0CE010E94210962E05F
S1131020CE010E94350963EA72E0CE010E942109D3
S113103027C0EC012E96CE010E9444096BEA72E0AF
S1131040CE010E94210962E0CE010E9435096BE5C0
S113105072E0CE010E94210913C0EC012E96CE014C
S11310600E94440965EB72E0CE010E94210962E00E
S1131070CE010E9435096DEB72E0CE010E94210978
S1131080DF91CF9108958AB180618AB98AB1806273
S11310908AB98AB180648AB98AB180688AB984B10C
S11310A0816084B984B1826084B90895089541113E
S11310B004C085B18E7F85B903C085B1816085B9CF
S11310C08BB18F70962F907F892B8BB935E03A9531
S11310D0F1F7000085B1826085B985E08A95F1F762
S11310E0000085B18D7F85B990EF9A95F1F72BB10A
S11310F030E1639FC00111242F70822B8BB985E0EE
S11311008A95F1F7000085B1826085B995E09A95DA
S1131110F1F7000085B18D7F85B930EF3A95F1F78D
S1131120411108C0643030F48FE39FE10197F1F777
S113113000C000000895CF93DF93EC0185B18E7F4A
S113114085B985B18D7F85B92FEF89EF90E0215066
S113115080409040E1F700C000008BB18F70806345
S11311608BB925E02A95F1F7000085B1826085B935
S113117085E08A95F1F7000085B18D7F85B990EF00
S11311809A95F1F78FE19EE40197F1F700C0000012
S113119095E09A95F1F7000085B1826085B925E064
S11311A02A95F1F7000085B18D7F85B980EF8A9586
S11311B0F1F78FE193E00197F1F700C0000095E0AB
S11311C09A95F1F7000085B1826085B925E02A95EA
S11311D0F1F7000085B18D7F85B980EF8A95F1F72D
S11311E08BB18F7080628BB995E09A95F1F700000E
S11311F085B1826085B925E02A95F1F7000085B1B3
S11312008D7F85B980EF8A95F1F740E068E2CE01E1
S11312100E94570840E068E0CE010E94570840E071
S113122061E0CE010E94570840E06CE0CE010E94CC
S1131230570840E060E8CE010E945708DF91CF9143
S113124008950F931F93CF93DF938C01EB01688173
S1131250662331F041E0C8010E9457082196F7CF78
S1131260DF91CF911F910F910895613019F0623091
S113127031F0089540E060E80E945708089540E086
S113128060EC0E9457080895CF93DF93EC0140E08F
S113129061E00E94570861E0CE010E943509DF91A8
S11312A0CF9108950F931F93CF93DF93EC018B019C
S11312B0019799F46F3F7F4F81F483ED93E00E948F
S11312C026018EEC93E00E94190E8AEC93E00E94B2
S11312D0840089EC93E00E944308CD2B99F40F3FDE
S11312E01F4F81F489EC93E00E9456088AEC93E046
S11312F00E9485008EEC93E00E94560D83ED93E0EE
S11313000E947E01DF91CF911F910F9108951F924A
S11313100F920FB60F9211242F933F934F935F9325
S11313206F937F938F939F93AF93BF93EF93FF93A9
S11313308091C6038130C9F48091C803873030F4AA
S11313408091C8038F5F8093C80303C081E08093BA
S1131350C80368EC73E08AEC93E00E94B10068EC87
S113136073E083ED93E00E94A507FF91EF91BF9195
S1131370AF919F918F917F916F915F914F913F9129
S11313802F910F900FBE0F901F9018951F920F92E0
S11313900FB60F9211242F933F934F935F936F9344
S11313A07F938F939F93AF93BF93EF93FF934A9948
S11313B01AC068EC73E083ED93E00E9443038091CC
S11313C0D403882351F089EC93E00E94440982E01D
S11313D08093C6031092BD030BC081E08093C603C3
S11313E01092BE0305C085E08093C6031092BD032E
S11313F0FF91EF91BF91AF919F918F917F916F91E9
S11314005F914F913F912F910F900FBE0F901F90BE
S113141018951F920F920FB60F9211242F933F939A
S11314204F935F936F937F938F939F93AF93BF93E8
S1131430EF93FF938091C600803311F41092C70399
S1131440813319F491E09093C703823319F492E045
S11314509093C703833319F483E08093C703809187
S1131460C703813059F028F0823071F08330A9F03D
S113147018C083ED93E00E94A70613C081E0809317
S1131480BF038093D3030DC01092BF031092D30304
S11314908EEC93E00E94560E04C083ED93E00E940C
S11314A0B605FF91EF91BF91AF919F918F917F917D
S11314B06F915F914F913F912F910F900FBE0F90BD
S11314C01F9018951F920F920FB60F9211242F930D
S11314D03F934F935F936F937F938F939F93AF93B8
S11314E0BF93EF93FF938091C0039091C103019642
S11314F09093C1038093C0038091C0039091C10372
S11315008B35910579F41092BE031092BD0383E0EC
S11315108093C60389EC93E00E9444091092C103AE
S11315201092C003FF91EF91BF91AF919F918F9162
S11315307F916F915F914F913F912F910F900FBECB
S11315400F901F9018951F920F920FB60F921124AF
S11315502F933F934F935F936F937F938F939F93B7
S1131560AF93BF93EF93FF938091C4039091C5030E
S113157001969093C5038093C4032091C4033091D2
S1131580C5038091C2039091C3032817390769F4F6
S113159089EC93E00E94440984E08093C60310928E
S11315A0BE031092C5031092C403FF91EF91BF9143
S11315B0AF919F918F917F916F915F914F913F91E7
S11315C02F910F900FBE0F901F901895DC01EC9196
S11315D08E2F90E0FC013197E730F105A0F5EF5A2A
S11315E0FF4F0C94E5108EE691E09093C303809333
S11315F0C203089587EB90E09093C3038093C203E2
S113160008958AE790E09093C3038093C2030895FA
S11316108EE691E09093C3038093C203089587EB11
S113162090E09093C3038093C20308958EE691E003
S11316309093C3038093C203089587EB90E0909343
S1131640C3038093C20308951092B10010928100E5
S113165015BC83ED93E00E9484071092C603109298
S1131660BE031092BD031092BC031092C5031092E6
S1131670C4031092C3031092C2031092C1031092C8
S1131680C00389EC93E00E94440965EC72E089ECA4
S113169093E00E94210962E089EC93E00E943509FD
S11316A06EEC72E089EC93E00E9421092FEF83ED48
S11316B090E3215080409040E1F700C0000089ECA5
S11316C093E00E94440908951092B10010928100A1
S11316D015BC83ED93E00E9484071092C603109218
S11316E0BE031092BD031092BC031092C503109266
S11316F0C4031092C3031092C2031092C103109248
S1131700C00389EC93E00E9444091092C80368EC7A
S113171073E08AEC93E00E94B100089589EC93E0B1
S11317200E949B0884B1886084B9E0EBF0E082E019
S113173080838081806480831092B1008CE78093E1
S1131740B30014BC15BC81E080936E00109280003D
S11317501092810080936F00E9E6F0E08CE08083D2
S113176080818360808383E08DBB78948AB18B7F92
S11317708AB98AB1877F8AB987B18F7E87B987B1E1
S1131780806287B903E022E041E060E08AEC93E004
S11317900E9486008EEC93E00E94560E89EC93E042
S11317A00E9444091092C603349B56C188B18062DA
S11317B088B98091C603823009F46AC028F488236A
S11317C061F08130B9F1F0CF843009F4D6C008F467
S11317D09CC0853009F421C1E7CF8091BF038823E1
S11317E0A1F067ED72E08EEC93E00E94420E6DE092
S11317F08EEC93E00E944F0E2FEF81EE94E0215087
S113180080409040E1F700C000008091BE03811148
S113181009C066EE72E089EC93E00E94210981E040
S11318208093BE031F9BC0CF81E08093C6031092B8
S1131830BE03BACF8091BF038823A1F064EF72E0A6
S11318408EEC93E00E94420E6DE08EEC93E00E94D9
S11318504F0E2FEF81EE94E0215080409040E1F74D
S113186000C000008091BE0381110DC089EC93E09B
S11318700E94440964E073E089EC93E00E9421092A
S113188081E08093BE031F998FCF0E94240B8CCFDD
S11318908091BF038823A1F065E173E08EEC93E0AF
S11318A00E94420E6DE08EEC93E00E944F0E2FEFEB
S11318B081EE94E0215080409040E1F700C00000A8
S11318C08091BD0381111CC068EC73E083ED93E04B
S11318D00E949507882359F081E08093BD0383ED2E
S11318E093E00E94130782E08093810009C089EC91
S11318F093E00E94440983E08093C6031092BE03E0
S11319001F9952CF0E94240B4FCF1092B100109216
S113191081008091BF038823A1F064E273E08EEC20
S113192093E00E94420E6DE08EEC93E00E944F0E15
S11319302FEF81EE94E0215080409040E1F700C009
S113194000008091BC03811113C081E08093BC032B
S113195089EC93E00E94440988EC93E00E94E60A33
S113196068EC73E083ED93E00E94310785E085BD68
S11319701F991ACF0E94240B17CF15BC83ED93E057
S11319800E9484078091BF03882359F064E373E0C5
S11319908EEC93E00E94420E6DE08EEC93E00E9488
S11319A04F0E8091BE0381110DC089EC93E00E941B
S11319B0440964E473E089EC93E00E94210981E026
S11319C08093BE032FEF81EE94E02150804090403D
S11319D0E1F700C000001F99E7CE89EC93E00E9474
S11319E0440962E573E089EC93E00E9421092FEF3A
S11319F083ED90E3215080409040E1F700C0000067
S1131A0089EC93E00E9444091092C6031092BE032D
S1131A101092BD031092BC03C7CE8091BF038823EC
S1131A20A1F06BE573E08EEC93E00E94420E6DE052
S1131A308EEC93E00E944F0E2FEF81EE94E0215044
S1131A4080409040E1F700C0000083ED93E00E94E5
S1131A509B011092C603A8CE88B18F7D88B90E94DD
S1131A60640BA2CE6FEF7FEF81E090E00E945209F9
S1131A7008956FEF7FEF80E090E00E94520908958F
S1131A800895089584B1886084B9E0EBF0E082E0C1
S1131A9080838081806480831092B1008CE780937E
S1131AA0B300089583E08093B10008950895FC0184
S1131AB071836083CB01A0E0B0E0880F991FAA1F57
S1131AC0BB1F880F991FAA1FBB1F9C01AD01220FCA
S1131AD0331F441F551F220F331F441F551F60E03F
S1131AE074E284EF90E00E94C310215031093093D6
S1131AF0C5002093C4000895FC016283613019F08D
S1131B00623039F00CC0E2ECF0E08081877F8083A2
S1131B100895E2ECF0E08081886080830895E2EC2F
S1131B20F0E08081877F80830895FC0163836730C0
S1131B3019F128F4653041F0663091F041C0683005
S1131B4039F1693089F13CC0E2ECF0E080818B7FAF
S1131B50808380818B7F808380818D7F80830895C3
S1131B60E2ECF0E080818B7F808380818B7F8083B7
S1131B708081826080830895E2ECF0E080818B7F35
S1131B80808380818460808380818D7F80830895B9
S1131B90E2ECF0E080818B7F8083808184608083AD
S1131BA08081826080830895E2ECF0E0808184602B
S1131BB080838081846080838081826080830895B3
S1131BC0E2ECF0E080818B7F80838081846080837D
S1131BD08081826080830895FC0164836E3429F0DF
S1131BE06F34A9F06534E1F409C0E2ECF0E08081DF
S1131BF08F7D808380818F7E80830895E2ECF0E086
S1131C008081806280838081806180830895E2EC9A
S1131C10F0E080818062808380818F7E808308955C
S1131C20E2ECF0E080818F7D808380818F7E8083F1
S1131C300895CF93DF93EC0160E875E20E94570D9D
S1131C4061E0CE010E947C0D68E0CE010E94950DFA
S1131C506EE4CE010E94EC0D8AB182608AB9E1EC97
S1131C60F0E088E18083808180688083E2ECF0E0AA
S1131C7080818F77808380818F7B80837894DF91CC
S1131C80CF910895FB019081992341F08091C00088
S1131C9085FFFCCF9093C6003196F5CF08958091CF
S1131CA0C00085FFFCCF6093C6000895CF93DF93F7
S1131CB0EC016EE673E00E94420E6DE0CE010E94DC
S1131CC04F0E60E873E0CE010E94420E6DE0CE013B
S1131CD00E944F0E6AE873E0CE010E94420E6DE04E
S1131CE0CE010E944F0E69E973E0CE010E94420EBC
S1131CF06DE0CE010E944F0E6DE0CE010E944F0EAA
S1131D00DF91CF91089508950895FC01608324B173
S1131D1081E090E002C0880F991F6A95E2F7822B58
S1131D2084B9089545B121E030E0FC01008002C08F
S1131D30220F331F0A94E2F7242B25B921E02183D3
S1131D400895FC0195B121E030E0008002C0220F2B
S1131D50331F0A94E2F72095292325B911820895A7
S1131D605058BB27AA270E94C80E0C94A70F0E94A4
S1131D70990F38F00E94A00F20F039F49F3F19F416
S1131D8026F40C94960F0EF4E095E7FB0C94900F58
S1131D90E92F0E94B80F58F3BA1762077307840734
S1131DA0950720F079F4A6F50C94DA0F0EF4E0957B
S1131DB00B2EBA2FA02D0B01B90190010C01CA0101
S1131DC0A0011124FF27591B99F0593F50F4503EAC
S1131DD068F11A16F040A22F232F342F4427585F9E
S1131DE0F3CF469537952795A795F0405395C9F7B6
S1131DF07EF41F16BA0B620B730B840BBAF091506E
S1131E00A1F0FF0FBB1F661F771F881FC2F70EC00C
S1131E10BA0F621F731F841F48F4879577956795DF
S1131E20B795F7959E3F08F0B0CF9395880F08F0CB
S1131E309927EE0F9795879508950E94240F68942B
S1131E40B1110C94DB0F08950E94C00F88F09F57C6
S1131E5098F0B92F9927B751B0F0E1F0660F771FCA
S1131E60881F991F1AF0BA95C9F714C0B13091F0C0
S1131E700E94DA0FB1E008950C94DA0F672F782FDF
S1131E808827B85F39F0B93FCCF386957795679585
S1131E90B395D9F73EF490958095709561957F4FF1
S1131EA08F4F9F4F0895E89409C097FB3EF4909597
S1131EB08095709561957F4F8F4F9F4F9923A9F01F
S1131EC0F92F96E9BB279395F695879577956795AE
S1131ED0B795F111F8CFFAF4BB0F11F460FF1BC0F2
S1131EE06F5F7F4F8F4F9F4F16C0882311F096E985
S1131EF011C0772321F09EE8872F762F05C0662333
S1131F0071F096E8862F70E060E02AF09A95660FEB
S1131F10771F881FDAF7880F9695879597F90895A4
S1131F2097F99F6780E870E060E008959FEF80EC88
S1131F30089500240A94161617061806090608952B
S1131F4000240A9412161306140605060895092E91
S1131F500394000C11F4882352F0BB0F40F4BF2B00
S1131F6011F460FF04C06F5F7F4F8F4F9F4F089540
S1131F7057FD9058440F551F59F05F3F71F0479536
S1131F80880F97FB991F61F09F3F79F0879508951B
S1131F90121613061406551FF2CF4695F1DF08C03A
S1131FA0161617061806991FF1CF86957105610557
S1131FB008940895E894BB2766277727CB0197F9FF
S1131FC008950E945E1008F48FEF08950E94F90F9F
S1131FD00C94A70F0E94990F38F00E94A00F20F0D4
S1131FE0952311F00C94900F0C94960F11240C94DB
S1131FF0DB0F0E94B80F70F3959FC1F3950F50E06B
S1132000551F629FF001729FBB27F00DB11D639FA6
S1132010AA27F00DB11DAA1F649F6627B00DA11D4C
S1132020661F829F2227B00DA11D621F739FB00DF2
S1132030A11D621F839FA00D611D221F749F332762
S1132040A00D611D231F849F600D211D822F762FFB
S11320506A2F11249F5750409AF0F1F088234AF0D8
S1132060EE0FFF1FBB1F661F771F881F9150504044
S1132070A9F79E3F510580F00C94900F0C94DB0F50
S11320805F3FE4F3983ED4F3869577956795B795CB
S1132090F795E7959F5FC1F7FE2B880F911D9695E5
S11320A0879597F908950E94AB1030F09F3710F48C
S11320B00C94DB0F0C9482100C949D10990F000863
S11320C0550FAA0BE0E8FEEF16161706E807F90706
S11320D0C0F012161306E407F50798F0621B730BA1
S11320E0840B950B39F40A2661F0232B242B252B22
S11320F021F408950A2609F4A140A6958FEF811DC5
S1132100811D0895882371F4772321F09850872B3B
S1132110762F07C0662311F499270DC09051862BA2
S113212070E060E02AF09A95660F771F881FDAF74F
S1132130880F9695879597F908959F3F31F09150B0
S113214020F4879577956795B795880F911D969597
S1132150879597F908950E94C00FA0F0BEE7B917BC
S113216088F4BB279F3860F41616B11D672F782FAB
S11321708827985FF7CF869577956795B11D9395D6
S11321809639C8F30895A1E21A2EAA1BBB1BFD01C0
S11321900DC0AA1FBB1FEE1FFF1FA217B307E40742
S11321A0F50720F0A21BB30BE40BF50B661F771F9A
S11321B0881F991F1A9469F760957095809590957A
S11321C09B01AC01BD01CF010895EE0FFF1F0590E7
S11321D0F491E02D0994AEE0B0E0E1EFF0E10C946D
S11321E0AC130D891E8986E08C831A8309838FEFD3
S11321F09FE79E838D83AE01475E5F4F6F89788D25
S1132200CE0101960E940D11EF81F885E00FF11FB8
S113221010822E96E4E00C94C813ABE0B0E0E3E146
S1132220F1E10C949E136C017B018A01FC0117827D
S11322301682838181FFCCC1CE0101963C01F60157
S11322409381F70193FD859193FF81917F01882309
S113225009F4BAC1853239F493FD859193FF8191D4
S11322607F01853229F4B60190E00E940413E7CF80
S1132270912C212C312CFFE1F315D8F08B3279F01D
S113228038F4803279F08332A1F4232D20611DC00B
S11322908D3261F0803369F4232D216016C0832DC3
S11322A08260382EE32DE4603E2E2AC0F32DF860C0
S11322B01DC037FC2DC020ED280F2A3040F08E328F
S11322C0B9F436FC81C1232D2064322E19C036FEA8
S11322D006C08AE0989E200D1124922E11C0EAE0D7
S11322E02E9E200D1124222EF32DF0623F2E08C0C5
S11322F08C3621F4832D8068382E02C0883641F450
S1132300F70193FD859193FF81917F018111B3CFF3
S1132310982F9F7D9554933028F40C5F1F4F9FE3B3
S113232099830DC0833631F0833771F0833509F01A
S113233059C021C0F801808189830E5F1F4F882412
S11323408394912C530113C02801F2E04F0E511CC9
S1132350F801A080B18036FE03C0692D70E002C090
S11323606FEF7FEFC5010E94F9124C018201F32D3A
S1132370FF773F2E16C0280122E0420E511CF801BF
S1132380A080B18036FE03C0692D70E002C06FEFFB
S11323907FEFC5010E94EE124C01F32DF0683F2E31
S11323A0820133FC1BC0822D90E088169906B0F49C
S11323B0B60180E290E00E9404132A94F4CFF50160
S11323C037FC859137FE81915F01B60190E00E9450
S11323D0041321102A9421E0821A91088114910493
S11323E071F7E8C0843611F0893641F5F80137FEFB
S11323F007C060817181828193810C5F1F4F08C087
S113240060817181072E000C880B990B0E5F1F4FA2
S1132410F32DFF763F2E97FF09C090958095709518
S113242061957F4F8F4F9F4FF0683F2E2AE030E039
S1132430A3010E944013882E861845C0853731F4C5
S1132440232D2F7EB22E2AE030E025C0932D997FD4
S1132450B92E8F36C1F018F4883579F0B5C08037BD
S113246019F0883721F0B0C0E92FE061BE2EB4FE28
S11324700DC0FB2DF460BF2E09C034FE0AC0292F05
S11324802660B22E06C028E030E005C020E130E02E
S113249002C020E132E0F801B7FE07C0608171811B
S11324A0828193810C5F1F4F06C06081718180E03F
S11324B090E00E5F1F4FA3010E944013882E8618E0
S11324C0FB2DFF773F2E36FE0DC0232D2E7FA22E2F
S11324D0891458F434FE0BC032FC09C0832D8E7E5F
S11324E0A82E05C0B82CA32C03C0B82C01C0B92C4D
S11324F0A4FE0FC0FE01E80DF11D8081803321F49C
S11325009A2D997EA92E09C0A2FE06C0B394B39455
S113251004C08A2D867809F0B394A3FC11C0A0FEF0
S113252006C0B21488F4280C922C9B180EC0B21466
S113253060F4B60180E290E00E940413B394F7CFF4
S1132540B21418F42B1802C0982C212CA4FE10C02D
S1132550B60180E390E00E940413A2FE17C0A1FC20
S113256003C088E790E002C088E590E0B6010CC0A3
S11325708A2D867859F0A1FE02C08BE201C080E268
S1132580A7FC8DE2B60190E00E940413891438F48C
S1132590B60180E390E00E9404139A94F7CF8A94E2
S11325A0F301E80DF11D8081B60190E00E9404134F
S11325B08110F5CF222009F442CEB60180E290E0EA
S11325C00E9404132A94F6CFF6018681978102C0F3
S11325D08FEF9FEF2B96E2E10C94BA13FC01059068
S11325E0615070400110D8F7809590958E0F9F1F11
S11325F00895FC016150704001900110D8F7809556
S113260090958E0F9F1F08950F931F93CF93DF9381
S1132610FB01238121FD03C08FEF9FEF2CC022FF1C
S113262016C046815781248135814217530744F4EB
S1132630A081B1819D012F5F3F4F318320838C9313
S1132640268137812F5F3F4F3783268314C08B0148
S1132650EC01FB010084F185E02D0995892BE1F65D
S1132660D80116968D919C911797019617969C9375
S11326708E931697CE01DF91CF911F910F910895FC
S1132680FA01AA27283051F1203181F1E8946F939F
S11326906E7F6E5F7F4F8F4F9F4FAF4FB1E03ED045
S11326A0B4E03CD0670F781F891F9A1FA11D680FE3
S11326B0791F8A1F911DA11D6A0F711D811D911D16
S11326C0A11D20D009F468943F912AE0269F11248B
S11326D03019305D3193DEF6CF010895462F4770EF
S11326E0405D4193B3E00FD0C9F7F6CF462F4F704A
S11326F0405D4A3318F0495D31FD4052419302D0A8
S1132700A9F7EACFB4E0A69597958795779567954D
S1132710BA95C9F700976105710508959B01AC014D
S11327200A2E06945795479537952795BA95C9F774
S1132730620F731F841F951FA01D08952F923F924F
S11327404F925F926F927F928F929F92AF92BF92BD
S1132750CF92DF92EF92FF920F931F93CF93DF9369
S1132760CDB7DEB7CA1BDB0B0FB6F894DEBF0FBEC6
S1132770CDBF09942A88398848885F846E847D8413
S11327808C849B84AA84B984C884DF80EE80FD8015
S11327900C811B81AA81B981CE0FD11D0FB6F8948B
S11327A0DEBF0FBECDBFED01089510E0C9E5D0E056
S11327B004C0FE010E94E5102196CA35D107C9F76D
S10727C0F894FFCFB7
S11327C44D617175696E61207265616261737465CE
S11327D4636964610042656269646120496E646985
S11327E473706F6E6976656C0042656269646173C7
S11327F420446973706F6E69766569733A00426543
S1132804626964610025640042656269646120311F
S11328142053656C6563696F6E6164612100426570
S11328246269646120322053656C6563696F6E610B
S11328346461210042656269646120332053656CDC
S11328446563696F6E6164612100426562696461F4
S113285420342053656C6563696F6E616461210083
S113286442656269646120352053656C6563696FF0
S11328746E6164612100426562696461203620539B
S1132884656C6563696F6E616461210042656269A8
S1132894646120372053656C6563696F6E6164619C
S11328A42100436166652072657374616E74653AD0
S11328B420004C656974652072657374616E746577
S11328C43A200043686F636F6C61746520726573AA
S11328D474616E74653A200052242025642E2530D8
S11328E432640056616C6F72204172726563616474
S11328F461646F3A20004D6F656E646F2E2E2E0056
S1132904416775617264650053657276696E646FBC
S11329140043616665205075726F00522420312E85
S11329243530004D616363686961746F005224201B
S1132934322E3030004D6F63686100522420322EF1
S11329443735004C65697465205075726F005224E4
S113295420312E3030004163686F636F6C617461A1
S1132964646F00522420312E38300043686F636F43
S11329746C6174650043686F63616665005224206A
S1132984322E31300050726F636573736F0041628D
S11329946F727461646F005741494E54494E472025
S11329A4474C41535300496E73697261206F20632D
S11329B46F706F0053454C454354494E472044526D
S11329C4494E4B0053656C6563696F6E652062659F
S11329D462696461004D494C4C494E475F434F461C
S11329E446454500505245504152494E47204452B1
S11329F4494E4B0052454D4F4D56494E4720474C86
S1132A0441535300526574697265206F20636F707B
S1132A146F004F6272696761646F005245465545A1
S1132A244C4C494E475F4D414348494E4500302084
S1132A342D204D6F7374726172204C7563726F0034
S1132A4431202D2044656275670032202D205361A6
S1132A5469722044656275670033202D204D6F73BD
S1132A647472617220496E6772656469656E746517
S10F2A74732052657374616E7465730006
S9030000FC
