S00E000053657269616C2E73726563B6
S11300000C9434000C9451000C9451000C94510045
S11300100C9451000C9451000C9451000C94510018
S11300200C9451000C9451000C9451000C94510008
S11300300C9451000C9451000C9451000C945100F8
S11300400C9451000C9451000C9453000C945100E6
S11300500C9451000C9451000C9451000C945100D8
S11300600C9451000C94510011241FBECFEFD8E022
S1130070DEBFCDBF11E0A0E0B1E0EAEAF4E002C0E7
S113008005900D92A636B107D9F721E0A6E6B1E0B6
S113009001C01D92AA36B207E1F70E9478000C94C1
S11300A053020C9400001F920F920FB60F9211246A
S11300B08F939F9310926801109266018091C600FD
S11300C0803311F410926901813319F491E0909313
S11300D06901823319F482E08093690181E080939D
S11300E068019F918F910F900FBE0F901F901895EC
S11300F0CF93DF9300D000D01F92CDB7DEB70EE4CC
S113010028E041E060E875E2CE0101960E94A0017A
S1130110CE0101960E94E20180916801882309F4CE
S113012043C0809169018130F9F018F0823079F18F
S11301303BC080916701882359F060E071E0CE01F3
S113014001960E94CE016DE0CE0101960E94DB0172
S113015080916601811128C0CE0101960E9402029D
S113016081E08093660120C080916701882359F063
S113017061E171E0CE0101960E94CE016DE0CE01F5
S113018001960E94DB0181E0809367010DC010920B
S1130190670180916601811107C0CE0101960E941A
S11301A0E20181E0809366012FEF84E39CE021501B
S11301B080409040E1F700C00000AECFFC017183A5
S11301C06083CB01A0E0B0E0880F991FAA1FBB1F7A
S11301D0880F991FAA1FBB1F9C01AD01220F331F5B
S11301E0441F551F220F331F441F551F60E074E244
S11301F084EF90E00E943102215031093093C50010
S11302002093C4000895FC016283613019F06230C8
S113021039F00CC0E2ECF0E08081877F80830895A0
S1130220E2ECF0E08081886080830895E2ECF0E005
S11302308081877F80830895FC016383673019F18F
S113024028F4653041F0663091F041C0683039F1EE
S1130250693089F13CC0E2ECF0E080818B7F8083DF
S113026080818B7F808380818D7F80830895E2EC01
S1130270F0E080818B7F808380818B7F808380818D
S1130280826080830895E2ECF0E080818B7F80833C
S113029080818460808380818D7F80830895E2ECF7
S11302A0F0E080818B7F8083808184608083808183
S11302B0826080830895E2ECF0E080818460808332
S11302C08081846080838081826080830895E2ECF1
S11302D0F0E080818B7F8083808184608083808153
S11302E0826080830895FC0164836E3429F06F3446
S11302F0A9F06534E1F409C0E2ECF0E080818F7D7F
S1130300808380818F7E80830895E2ECF0E0808199
S1130310806280838081806180830895E2ECF0E0D4
S113032080818062808380818F7E80830895E2EC67
S1130330F0E080818F7D808380818F7E808308952B
S1130340FF920F931F93CF93DF93EC01F42E122FA0
S11303500E94DE006F2DCE010E940301612FCE01A9
S11303600E941C01602FCE010E94730182E08AB9B1
S1130370E1ECF0E088E18083808180688083E2ECB6
S1130380F0E080818F77808380818F7B8083789475
S1130390DF91CF911F910F91FF900895FB01908100
S11303A0992341F08091C00085FFFCCF9093C60053
S11303B03196F5CF08958091C00085FFFCCF6093FE
S11303C0C6000895CF93DF93EC016CE171E00E94C5
S11303D0CE016DE0CE010E94DB016EE271E0CE0140
S11303E00E94CE016DE0CE010E94DB0168E371E062
S11303F0CE010E94CE016DE0CE010E94DB01DF91AF
S1130400CF910895CF93DF93EC0167E471E00E94EC
S1130410CE0160E571E0CE010E94CE016DE0CE0117
S11304200E94DB0163E571E0CE010E94CE0160E52C
S113043071E0CE010E94CE016DE0CE010E94DB018D
S11304406CE571E0CE010E94CE0160E571E0CE0161
S11304500E94CE016DE0CE010E94DB01DF91CF91BD
S11304600895A1E21A2EAA1BBB1BFD010DC0AA1FF1
S1130470BB1FEE1FFF1FA217B307E407F50720F009
S1130480A21BB30BE40BF50B661F771F881F991F84
S11304901A9469F760957095809590959B01AC01CD
S10D04A0BD01CF010895F894FFCFC9
S11304AA6D6F737472616E646F2070726F666974B3
S11304BA004D6F646F2064656275670030202D20DB
S11304CA4D6F7374726172204C7563726F003120C0
S11304DA2D2044656275670032202D2053616972AC
S11304EA204465627567005065636120313A2000D3
S11304FA7878005065636120323A20005065636160
S109050A20333A2000003A
S9030000FC
