S01D00006D6963726F2D636F666665652D6669726D776172652E73726563CE
S11300000C9444000C9430010C9449010C946C0041
S11300100C946C000C946C000C946C000C946C00AC
S11300200C946C000C946C000C946C000C946C009C
S11300300C946C000C946C000C946C000C946C008C
S11300400C946C000C946C000C9488020C946C005E
S11300500C946C000C946C000C946C000C946C006C
S11300600C946C000C946C00A900B600C300D00082
S1130070DD00EA00F7006A018C01AE01D001F20153
S1130080140236022903300311241FBECFEFD8E037
S1130090DEBFCDBF12E0A0E0B1E0EAEAF3E102C0C6
S11300A005900D92A830B107D9F722E0A8E0B2E09C
S11300B001C01D92A931B207E1F710E0C3E4D0E01A
S11300C004C02197FE010E94D806C234D107C9F7A3
S11300D00E94AD020C94C8090C9400000895089580
S11300E00F9337B181E090E0FC0102C0EE0FFF1FD7
S11300F06A95E2F7BF01632B67B937B1BC0102C04F
S1130100660F771F4A95E2F7AB01432B47B947B116
S1130110FC0102C0EE0FFF1F2A95E2F79F01242B7A
S113012027B927B102C0880F991F0A95E2F7822BDD
S113013087B90F910895DB01EC918E2F90E0FC01BB
S11301403197E730F10508F05EC0EC5CFF4F0C948A
S1130150D80688B1816088B988B18D7F88B988B1A3
S11301608B7F88B988B1877F88B9089588B18E7FDD
S113017088B988B1826088B988B18B7F88B988B121
S1130180877F88B9089588B1816088B988B1826011
S113019088B988B18B7F88B988B1877F88B9089579
S11301A088B18E7F88B988B18D7F88B988B1846021
S11301B088B988B1877F88B9089588B1816088B982
S11301C088B18D7F88B988B1846088B988B1877F08
S11301D088B9089588B18E7F88B988B1826088B95A
S11301E088B1846088B988B1877F88B9089588B157
S11301F0816088B988B1826088B988B1846088B91F
S113020088B1877F88B90895EF92FF920F93CF93B7
S1130210DF93EC017B01019781F46F3F7F4F69F419
S11302200EE428E041E060E875E284E192E00E9497
S1130230FA0380E192E00E946E00CD2B59F4EF2086
S1130240E09441F480E192E00E946F0084E192E046
S11302500E943703DF91CF910F91FF90EF900895A3
S11302601F920F920FB60F9211248F938091000169
S1130270873030F4809100018F5F8093000103C0C8
S113028081E0809300018F910F900FBE0F901F901B
S113029018951F920F920FB60F9211242F933F932C
S11302A04F935F936F937F938F939F93AF93BF937A
S11302B0EF93FF934A9908C1E09100018E2F90E0DB
S11302C0FC013197E730F10508F0F2C0E55CFF4F1F
S11302D00C94D80661E071E084E192E00E94290464
S11302E06DE084E192E00E94360460910C0270910A
S11302F00D0280910E0290910F0220E030E040EC5C
S11303005FE30E94CD0460930C0270930D0280930E
S11303100E0290930F02EBC063E171E084E192E07E
S11303200E9429046DE084E192E00E943604609109
S11303300C0270910D0280910E0290910F0220E048
S113034030E040E050E40E94CD0460930C027093CE
S11303500D0280930E0290930F02C9C065E271E012
S113036084E192E00E9429046DE084E192E00E941D
S1130370360460910C0270910D0280910E029091EE
S11303800F0220E030E040E350E40E94CD0460938B
S11303900C0270930D0280930E0290930F02A7C07B
S11303A067E371E084E192E00E9429046DE084E156
S11303B092E00E94360460910C0270910D028091CB
S11303C00E0290910F0220E030E040E85FE30E94CB
S11303D0CD0460930C0270930D0280930E029093EF
S11303E00F0285C069E471E084E192E00E9429046F
S11303F06DE084E192E00E94360460910C027091F9
S11304000D0280910E0290910F0226E636E646EE2A
S11304105FE30E94CD0460930C0270930D028093FD
S11304200E0290930F0263C06BE571E084E192E0E9
S11304300E9429046DE084E192E00E9436046091F8
S11304400C0270910D0280910E0290910F0220E037
S113045030E040EC5FE30E94CD0460930C027093A3
S11304600D0280930E0290930F0241C06DE671E07D
S113047084E192E00E9429046DE084E192E00E940C
S1130480360460910C0270910D0280910E029091DD
S11304900F0226E636E646E050E40E94CD0460935F
S11304A00C0270930D0280930E0290930F021FC0F2
S11304B06FE771E084E192E00E9429046DE084E139
S11304C092E00E94360413C06EE871E084E192E089
S11304D00E9429046DE084E192E00E9436041092A7
S11304E00C0210920D0210920E0210920F02FF9154
S11304F0EF91BF91AF919F918F917F916F915F9198
S11305004F913F912F910F900FBE0F901F90189510
S11305101F920F920FB60F9211248F939F931092F4
S11305200A02109208028091C600803311F41092DE
S11305300B02813319F491E090930B02823319F486
S113054082E080930B0281E080930A029F918F9155
S11305500F900FBE0F901F901895E9E6F0E08CE025
S1130560808380818360808383E08DBB78948AB1AB
S11305708B7F8AB98AB1877F8AB903E022E041E0A0
S113058060E080E192E00E94700084E192E00E94C9
S11305903D0460E071E080E192E00E949B00809164
S11305A00A02882309F44BC080910B02813039F18F
S11305B018F08230B9F143C080910902882359F0C0
S11305C063EA71E084E192E00E9429046DE084E131
S11305D092E00E94360480910802811130C040915B
S11305E00C0250910D0260910E0270910F0284E191
S11305F092E00E945D0481E08093080220C0809113
S11306000902882359F064EB71E084E192E00E94CE
S113061029046DE084E192E00E94360481E0809335
S113062009020DC01092090280910802811107C0CD
S113063084E192E00E943D0481E0809308022FEF60
S113064084E39CE0215080409040E1F700C000002A
S1130650A0CF6FEF7FEF81E090E00E940401089546
S11306606FEF7FEF80E090E00E9404010895089509
S1130670FC0171836083CB01A0E0B0E0880F991F77
S1130680AA1FBB1F880F991FAA1FBB1F9C01AD0186
S1130690220F331F441F551F220F331F441F551FA2
S11306A060E074E284EF90E00E94B60621503109C4
S11306B03093C5002093C4000895FC016283613027
S11306C019F0623039F00CC0E2ECF0E08081877FF1
S11306D080830895E2ECF0E080818860808308954F
S11306E0E2ECF0E08081877F80830895FC016383DE
S11306F0673019F128F4653041F0663091F041C05B
S1130700683039F1693089F13CC0E2ECF0E0808175
S11307108B7F808380818B7F808380818D7F8083AA
S11307200895E2ECF0E080818B7F808380818B7F71
S113073080838081826080830895E2ECF0E0808190
S11307408B7F808380818460808380818D7F8083A0
S11307500895E2ECF0E080818B7F80838081846067
S113076080838081826080830895E2ECF0E0808160
S113077084608083808184608083808182608083C0
S11307800895E2ECF0E080818B7F80838081846037
S113079080838081826080830895FC0164836E3449
S11307A029F06F34A9F06534E1F409C0E2ECF0E01B
S11307B080818F7D808380818F7E80830895E2ECA9
S11307C0F0E08081806280838081806180830895ED
S11307D0E2ECF0E080818062808380818F7E808380
S11307E00895E2ECF0E080818F7D808380818F7EAC
S11307F080830895FF920F931F93CF93DF93EC01AF
S1130800F42E122F0E9438036F2DCE010E945D0337
S1130810612FCE010E947603602FCE010E94CD038A
S11308208AB182608AB9E1ECF0E088E1808380815A
S113083080688083E2ECF0E080818F778083808120
S11308408F7B80837894DF91CF911F910F91FF90DC
S11308500895FB019081992341F08091C00085FFA8
S1130860FCCF9093C6003196F5CF08958091C000D7
S113087085FFFCCF6093C6000895CF93DF93EC010E
S11308806FEB71E00E9429046DE0CE010E943604F2
S113089061ED71E0CE010E9429046DE0CE010E9459
S11308A036046BED71E0CE010E9429046DE0CE01A7
S11308B00E943604DF91CF9108958F929F92AF9258
S11308C0BF92CF92DF92EF92FF920F931F93CF9339
S11308D0DF93CDB7DEB72E970FB6F894DEBF0FBE09
S11308E0CDBF8C014B875C876D877E876B857C854C
S11308F08D859E850E9439056B017C018B849C84C7
S1130900AD84BE84072E000C880B990B0E947105E0
S11309109B01AC01C501B4010E94CC0420E030E08D
S113092048EC52E40E94FD050E946A060E943905C3
S11309307F936F93DF92CF928AEE91E09F938F9390
S1130940CE0101967C019F938F930E94DE0665EF92
S113095071E0C8010E942904B701C8010E9429045A
S11309606DE0C8010E9436040FB6F894DEBF0FBED6
S1130970CDBF2E960FB6F894DEBF0FBECDBFDF916C
S1130980CF911F910F91FF90EF90DF90CF90BF9088
S1130990AF909F908F9008955058BB27AA270E942C
S11309A0E4040C94C3050E94B50538F00E94BC050C
S11309B020F039F49F3F19F426F40C94B2050EF498
S11309C0E095E7FB0C94AC05E92F0E94D40558F39D
S11309D0BA17620773078407950720F079F4A6F520
S11309E00C94F6050EF4E0950B2EBA2FA02D0B01F6
S11309F0B90190010C01CA01A0011124FF27591B60
S1130A0099F0593F50F4503E68F11A16F040A22F65
S1130A10232F342F4427585FF3CF469537952795D6
S1130A20A795F0405395C9F77EF41F16BA0B620BD5
S1130A30730B840BBAF09150A1F0FF0FBB1F661F1C
S1130A40771F881FC2F70EC0BA0F621F731F841F5F
S1130A5048F4879577956795B795F7959E3F08F085
S1130A60B0CF9395880F08F09927EE0F9795879547
S1130A7008950E9440056894B1110C94F7050895F7
S1130A800E94DC0588F09F5798F0B92F9927B75139
S1130A90B0F0E1F0660F771F881F991F1AF0BA951E
S1130AA0C9F714C0B13091F00E94F605B1E0089581
S1130AB00C94F605672F782F8827B85F39F0B93F73
S1130AC0CCF3869577956795B395D9F73EF49095D1
S1130AD08095709561957F4F8F4F9F4F0895E8944F
S1130AE009C097FB3EF490958095709561957F4F72
S1130AF08F4F9F4F9923A9F0F92F96E9BB27939520
S1130B00F695879577956795B795F111F8CFFAF42F
S1130B10BB0F11F460FF1BC06F5F7F4F8F4F9F4F60
S1130B2016C0882311F096E911C0772321F09EE8BE
S1130B30872F762F05C0662371F096E8862F70E024
S1130B4060E02AF09A95660F771F881FDAF7880FFE
S1130B509695879597F9089597F99F6780E870E0CF
S1130B6060E008959FEF80EC089500240A9416161F
S1130B70170618060906089500240A941216130687
S1130B80140605060895092E0394000C11F4882315
S1130B9052F0BB0F40F4BF2B11F460FF04C06F5F31
S1130BA07F4F8F4F9F4F089557FD9058440F551F07
S1130BB059F05F3F71F04795880F97FB991F61F0DB
S1130BC09F3F79F087950895121613061406551F52
S1130BD0F2CF4695F1DF08C0161617061806991FBE
S1130BE0F1CF86957105610508940895E894BB27B3
S1130BF066277727CB0197F908950E9410060C9475
S1130C00C3050E94B50538F00E94BC0520F0952369
S1130C1011F00C94AC050C94B20511240C94F70556
S1130C200E94D40570F3959FC1F3950F50E0551FB2
S1130C30629FF001729FBB27F00DB11D639FAA272D
S1130C40F00DB11DAA1F649F6627B00DA11D661F7C
S1130C50829F2227B00DA11D621F739FB00DA11D9D
S1130C60621F839FA00D611D221F749F3327A00D57
S1130C70611D231F849F600D211D822F762F6A2FF3
S1130C8011249F5750409AF0F1F088234AF0EE0F58
S1130C90FF1FBB1F661F771F881F91505040A9F785
S1130CA09E3F510580F00C94AC050C94F7055F3F12
S1130CB0E4F3983ED4F3869577956795B795F795C1
S1130CC0E7959F5FC1F7FE2B880F911D9695879539
S1130CD097F908950E949E0630F09F3710F40C9403
S1130CE0F7050C9475060C949006882371F4772309
S1130CF021F09850872B762F07C0662311F499278B
S1130D000DC09051862B70E060E02AF09A95660F32
S1130D10771F881FDAF7880F9695879597F90895B6
S1130D209F3F31F0915020F4879577956795B7955B
S1130D30880F911D9695879597F908950E94DC0573
S1130D40A0F0BEE7B91788F4BB279F3860F41616E5
S1130D50B11D672F782F8827985FF7CF86957795F1
S1130D606795B11D93959639C8F30895A1E21A2E9B
S1130D70AA1BBB1BFD010DC0AA1FBB1FEE1FFF1F3B
S1130D80A217B307E407F50720F0A21BB30BE40B8B
S1130D90F50B661F771F881F991F1A9469F76095D2
S1130DA07095809590959B01AC01BD01CF0108958C
S1130DB0EE0FFF1F0590F491E02D0994AEE0B0E032
S1130DC0E4EEF6E00C949F090D891E8986E08C837D
S1130DD01A8309838FEF9FE79E838D83AE01475E5D
S1130DE05F4F6F89788DCE0101960E940007EF81D5
S1130DF0F885E00FF11F10822E96E4E00C94BB09F5
S1130E00ABE0B0E0E6E0F7E00C9491096C017B0103
S1130E108A01FC0117821682838181FFCCC1CE0135
S1130E2001963C01F6019381F70193FD859193FFAF
S1130E3081917F01882309F4BAC1853239F493FD85
S1130E40859193FF81917F01853229F4B60190E069
S1130E500E94F708E7CF912C212C312CFFE1F315E8
S1130E60D8F08B3279F038F4803279F08332A1F4FF
S1130E70232D20611DC08D3261F0803369F4232D50
S1130E80216016C0832D8260382EE32DE4603E2E4F
S1130E902AC0F32DF8601DC037FC2DC020ED280FAB
S1130EA02A3040F08E32B9F436FC81C1232D2064FF
S1130EB0322E19C036FE06C08AE0989E200D1124F9
S1130EC0922E11C0EAE02E9E200D1124222EF32D25
S1130ED0F0623F2E08C08C3621F4832D8068382EB2
S1130EE002C0883641F4F70193FD859193FF819107
S1130EF07F018111B3CF982F9F7D9554933028F4AF
S1130F000C5F1F4F9FE399830DC0833631F0833705
S1130F1071F0833509F059C021C0F80180818983BB
S1130F200E5F1F4F88248394912C530113C0280112
S1130F30F2E04F0E511CF801A080B18036FE03C0D0
S1130F40692D70E002C06FEF7FEFC5010E94EC08CD
S1130F504C018201F32DFF773F2E16C0280122E0B9
S1130F60420E511CF801A080B18036FE03C0692DE9
S1130F7070E002C06FEF7FEFC5010E94E1084C01F1
S1130F80F32DF0683F2E820133FC1BC0822D90E0CC
S1130F9088169906B0F4B60180E290E00E94F70842
S1130FA02A94F4CFF50137FC859137FE81915F01D6
S1130FB0B60190E00E94F70821102A9421E0821AD9
S1130FC091088114910471F7E8C0843611F08936D0
S1130FD041F5F80137FE07C06081718182819381F8
S1130FE00C5F1F4F08C060817181072E000C880BB5
S1130FF0990B0E5F1F4FF32DFF763F2E97FF09C00D
S113100090958095709561957F4F8F4F9F4FF068B5
S11310103F2E2AE030E0A3010E943309882E86186F
S113102045C0853731F4232D2F7EB22E2AE030E0DF
S113103025C0932D997FB92E8F36C1F018F48835C9
S113104079F0B5C0803719F0883721F0B0C0E92FA6
S1131050E061BE2EB4FE0DC0FB2DF460BF2E09C0AE
S113106034FE0AC0292F2660B22E06C028E030E0E4
S113107005C020E130E002C020E132E0F801B7FE13
S113108007C060817181828193810C5F1F4F06C00C
S11310906081718180E090E00E5F1F4FA3010E9488
S11310A03309882E8618FB2DFF773F2E36FE0DC0A0
S11310B0232D2E7FA22E891458F434FE0BC032FC4B
S11310C009C0832D8E7EA82E05C0B82CA32C03C086
S11310D0B82C01C0B92CA4FE0FC0FE01E80DF11D0F
S11310E08081803321F49A2D997EA92E09C0A2FE15
S11310F006C0B394B39404C08A2D867809F0B394DF
S1131100A3FC11C0A0FE06C0B21488F4280C922CD3
S11311109B180EC0B21460F4B60180E290E00E9405
S1131120F708B394F7CFB21418F42B1802C0982C14
S1131130212CA4FE10C0B60180E390E00E94F708C1
S1131140A2FE17C0A1FC03C088E790E002C088E5B6
S113115090E0B6010CC08A2D867859F0A1FE02C039
S11311608BE201C080E2A7FC8DE2B60190E00E9410
S1131170F708891438F4B60180E390E00E94F70878
S11311809A94F7CF8A94F301E80DF11D8081B6019A
S113119090E00E94F7088110F5CF222009F442CE96
S11311A0B60180E290E00E94F7082A94F6CFF60197
S11311B08681978102C08FEF9FEF2B96E2E10C941A
S11311C0AD09FC010590615070400110D8F780957D
S11311D090958E0F9F1F0895FC01615070400190FF
S11311E00110D8F7809590958E0F9F1F08950F9347
S11311F01F93CF93DF93FB01238121FD03C08FEF66
S11312009FEF2CC022FF16C046815781248135816F
S11312104217530744F4A081B1819D012F5F3F4FD2
S1131220318320838C93268137812F5F3F4F37830F
S1131230268314C08B01EC01FB010084F185E02DB1
S11312400995892BE1F6D80116968D919C911797F3
S1131250019617969C938E931697CE01DF91CF91AA
S11312601F910F910895FA01AA27283051F12031D6
S113127081F1E8946F936E7F6E5F7F4F8F4F9F4F26
S1131280AF4FB1E03ED0B4E03CD0670F781F891F68
S11312909A1FA11D680F791F8A1F911DA11D6A0F36
S11312A0711D811D911DA11D20D009F468943F91E9
S11312B02AE0269F11243019305D3193DEF6CF01E8
S11312C00895462F4770405D4193B3E00FD0C9F7AE
S11312D0F6CF462F4F70405D4A3318F0495D31FD1B
S11312E04052419302D0A9F7EACFB4E0A69597956E
S11312F0879577956795BA95C9F700976105710544
S113130008959B01AC010A2E06945795479537958D
S11313102795BA95C9F7620F731F841F951FA01DE7
S113132008952F923F924F925F926F927F928F9285
S11313309F92AF92BF92CF92DF92EF92FF920F9360
S11313401F93CF93DF93CDB7DEB7CA1BDB0B0FB66A
S1131350F894DEBF0FBECDBF09942A883988488827
S11313605F846E847D848C849B84AA84B984C884BD
S1131370DF80EE80FD800C811B81AA81B981CE0FB4
S1131380D11D0FB6F894DEBF0FBECDBFED01089599
S113139010E0C3E4D0E004C0FE010E94D806219608
S10D13A0C434D107C9F7F894FFCF55
S11313AA014F7063616F2031204573636F6C686904
S11313BA6461004F7063616F2032204573636F6C00
S11313CA68696461004F7063616F203320457363F9
S11313DA6F6C68696461004F7063616F20342045E3
S11313EA73636F6C68696461004F7063616F203561
S11313FA204573636F6C68696461004F7063616F41
S113140A2036204573636F6C68696461004F7063AA
S113141A616F2037204573636F6C68696461004F9C
S113142A7063616F20696E76616C696461004D61F5
S113143A7175696E6120726561626173746563694D
S113144A6461006D6F737472616E646F2070726F81
S113145A666974004D6F646F206465627567003055
S113146A202D204D6F7374726172204C7563726FF4
S113147A0031202D2044656275670032202D2053E7
S113148A6169722044656275670052242025642EBE
S113149A253032640056616C6F7220417272656342
S10B14AA616461646F3A2000E3
S9030000FC
