:100000000C9452000C94F7030C9436040C947A0070
:100010000C947A000C947A000C947A000C947A0078
:100020000C947A000C947A000C947A000C947A0068
:100030000C947A000C94B2040C947A000C947A001C
:100040000C94F1040C947A000C9465040C947A00DE
:100050000C947A000C947A000C947A000C947A0038
:100060000C947A000C947A00B700C400D100DE0032
:10007000EB00F80005013F0244024D025A025F0204
:1000800068026D02AB02BF02D302E702FB020F035C
:10009000230344054B0552055905600567056E05A8
:1000A00073067A0611241FBECFEFD8E0DEBFCDBFA6
:1000B00013E0A0E0B1E0E0EEF9E102C005900D929E
:1000C000A434B107D9F723E0A4E4B3E001C01D9242
:1000D000AE36B207E1F710E0C1E5D0E004C02197E9
:1000E000FE010E94F309C035D107C9F70E947505CA
:1000F0000C94E30C0C940000089508950F9337B10D
:1001000081E090E0FC0102C0EE0FFF1F6A95E2F76C
:10011000BF01632B67B937B1BC0102C0660F771FFF
:100120004A95E2F7AB01432B47B947B1FC0102C046
:10013000EE0FFF1F2A95E2F79F01242B27B927B165
:1001400002C0880F991F0A95E2F7822B87B90F9199
:100150000895DB01EC918E2F90E0FC013197E730A0
:10016000F10508F05EC0EC5CFF4F0C94F30988B118
:10017000816088B988B18D7F88B988B18B7F88B953
:1001800088B1877F88B9089588B18E7F88B988B192
:10019000826088B988B18B7F88B988B1877F88B938
:1001A000089588B1816088B988B1826088B988B1C2
:1001B0008B7F88B988B1877F88B9089588B18E7F91
:1001C00088B988B18D7F88B988B1846088B988B1D1
:1001D000877F88B9089588B1816088B988B18D7F9B
:1001E00088B988B1846088B988B1877F88B9089553
:1001F00088B18E7F88B988B1826088B988B18460FF
:1002000088B988B1877F88B9089588B1816088B935
:1002100088B1826088B988B1846088B988B1877FE5
:1002200088B90895AF92BF92CF92DF92EF92FF927A
:100230000F931F93CF93DF93EC0101960E945D070C
:100240008E010A5F1F4FC8010E9481065E0187E090
:10025000A80EB11CC5010E94BA076E0189E0C80E44
:10026000D11CC6010E94BA077E018BE0E80EF11C8A
:10027000C7010E94BA07CE010D960E9439031B8A5E
:100280001C8A1D8A1E8A1E861F86188A198A62E0A9
:10029000C5010E94BC0764E0C6010E94BC0765E07E
:1002A000C7010E94BC07C8010E948306DF91CF915D
:1002B0001F910F91FF90EF90DF90CF90BF90AF9084
:1002C0000895CF93DF93EC010D960E944C03CE016D
:1002D0000B960E94BB07CE0109960E94BB07CE0178
:1002E00007960E94BB07CE0106960E948206CE01A9
:1002F00001960E949A06DF91CF910895CF93DF93E4
:10030000FC018AE0868785E0878787E0808B138AF7
:10031000148A158A168AEF01219661E071E0CE01F8
:100320000E9486076DE0CE010E949307DF91CF9176
:1003300008958F929F92AF92BF92CF92DF92EF92E9
:10034000FF920F931F93CF93DF93CDB7DEB72A971A
:100350000FB6F894DEBF0FBECDBF8C01FC018388C1
:100360009488A588B688C501B4010E9454086B0121
:100370007C01072E000C880B990B0E948C089B01B6
:10038000AC01C501B4010E94E70720E030E048EC71
:1003900052E40E9418090E9485090E9454087F9324
:1003A0006F93DF92CF9285EE91E09F938F93CE0172
:1003B00001967C019F938F930E94F9090F5F1F4F55
:1003C00060EF71E0C8010E948607B701C8010E9472
:1003D00086076DE0C8010E9493070FB6F894DEBF50
:1003E0000FBECDBF2A960FB6F894DEBF0FBECDBFAD
:1003F000DF91CF911F910F91FF90EF90DF90CF9001
:10040000BF90AF909F908F9008950F931F93CF93BD
:10041000DF938C01EC012D9663E072E0CE010E9427
:10042000910362E0CE010E94A5036DE072E0CE016F
:100430000E949103C80106960E949306DF91CF9116
:100440001F910F91089506960E94970608950F93A5
:100450001F93CF93DF93EC018B0165E172E00D9662
:100460000E949103D801EC918E2F90E0FC0131970E
:10047000E730F105D0F5E55CFF4F0C94F309CE01B0
:1004800007960E94C90731C0CE0107960E94C9078E
:10049000CE0109960E94C90728C0CE0107960E9486
:1004A000C907CE0109960E94C907CE010B960E948A
:1004B000C9071BC0CE0109960E94C90716C0CE010C
:1004C00009960E94C907CE010B960E94C9070DC06C
:1004D000CE010B960E94C90708C0CE0107960E9464
:1004E000C907CE010B960E94C907DF91CF911F91DA
:1004F0000F910895CF93DF93EC0107960E94D807E0
:10050000CE0109960E94D807CE010B960E94D8070B
:10051000DF91CF910895FB018081873028F48430EA
:1005200040F4813018F003C0873009F0089581E06D
:10053000089580E00895CF93DF93DB01EC914E2F77
:1005400050E0FA013197E730F10508F08FC0EE5B1B
:10055000FF4F0C94F309EC012D96CE010E94B403D9
:100560006EE172E0CE010E94910362E0CE010E9432
:10057000A50368E272E0CE010E94910377C0EC010E
:100580002D96CE010E94B40360E372E0CE010E947A
:10059000910362E0CE010E94A5036AE372E0CE01FE
:1005A0000E94910363C0EC012D96CE010E94B4031A
:1005B00062E472E0CE010E94910362E0CE010E94EB
:1005C000A50368E472E0CE010E9491034FC0EC01E4
:1005D0002D96CE010E94B40360E572E0CE010E9428
:1005E000910362E0CE010E94A5036BE572E0CE01AB
:1005F0000E9491033BC0EC012D96CE010E94B403F2
:1006000063E672E0CE010E94910362E0CE010E9497
:10061000A50360E772E0CE010E94910327C0EC01C0
:100620002D96CE010E94B40368E772E0CE010E94CD
:10063000910362E0CE010E94A50368E272E0CE0160
:100640000E94910313C0EC012D96CE010E94B403C9
:1006500062E872E0CE010E94910362E0CE010E9446
:10066000A5036AE872E0CE010E949103DF91CF9169
:1006700008958AB180618AB98AB180628AB98AB1E3
:1006800080648AB98AB180688AB984B1816084B98A
:1006900084B1826084B908950895411104C085B180
:1006A0008E7F85B903C085B1816085B98BB18F70AC
:1006B000962F907F892B8BB935E03A95F1F70000A2
:1006C00085B1826085B985E08A95F1F7000085B132
:1006D0008D7F85B990EF9A95F1F72BB130E1639F4B
:1006E000C00111242F70822B8BB985E08A95F1F718
:1006F000000085B1826085B995E09A95F1F7000018
:1007000085B18D7F85B930EF3A95F1F7411108C079
:10071000643030F48FE39FE10197F1F700C00000EF
:1007200008950F931F93CF93DF938C01EB016881A2
:10073000662331F041E0C8010E944D032196F7CFB6
:10074000DF91CF911F910F910895613019F06230C0
:1007500031F0089540E060E80E944D03089540E0C4
:1007600060EC0E944D030895CF93DF93EC0140E0CD
:1007700061E00E944D0361E0CE010E94A503DF917C
:10078000CF9108950F931F93CF93DF93EC018B01CB
:10079000019799F46F3F7F4F81F487E593E00E94C2
:1007A000120182E593E00E945D078EE493E00E94CF
:1007B0007C008DE493E00E943903CD2B99F40F3F28
:1007C0001F4F81F48DE493E00E944C038EE493E08C
:1007D0000E947D0082E593E00E949A0687E593E0FF
:1007E0000E946101DF91CF911F910F9108951F9297
:1007F0000F920FB60F9211242F933F934F935F9355
:100800006F937F938F939F93AF93BF93EF93FF93D8
:1008100080914B038130C9F480910001873030F41E
:10082000809100018F5F8093000103C081E080937D
:10083000000160E071E08EE493E00E94A90060E0B6
:1008400071E087E593E00E949B02FF91EF91BF91D9
:10085000AF919F918F917F916F915F914F913F9158
:100860002F910F900FBE0F901F9018951F920F920F
:100870000FB60F9211242F933F934F935F936F9373
:100880007F938F939F93AF93BF93EF93FF934A9977
:1008900008C08DE493E00E94B40382E080934B0390
:1008A00003C085E080934B03FF91EF91BF91AF911F
:1008B0009F918F917F916F915F914F913F912F9178
:1008C0000F900FBE0F901F9018951F920F920FB6AA
:1008D0000F9211242F933F934F935F936F937F93C6
:1008E0008F939F93AF93BF93EF93FF938091C60035
:1008F000803311F410924C03813319F491E09093FA
:100900004C03823319F482E080934C0380914C03B2
:10091000813049F018F0823061F013C087E593E030
:100920000E9499010EC081E0809344038093570395
:1009300008C0109244031092570382E593E00E948E
:100940009A07FF91EF91BF91AF919F918F917F9106
:100950006F915F914F913F912F910F900FBE0F902C
:100960001F9018951F920F920FB60F9211242F937C
:100970003F934F935F936F937F938F939F93AF9327
:10098000BF93EF93FF9380914503909146030196A7
:1009900090934603809345038091450390914603CD
:1009A0008B35910569F487E593E00E94230283E08B
:1009B00080934B03109246031092450310928100DE
:1009C000FF91EF91BF91AF919F918F917F916F9127
:1009D0005F914F913F912F910F900FBE0F901F90FD
:1009E00018951F920F920FB60F9211242F933F93D9
:1009F0004F935F936F937F938F939F93AF93BF9327
:100A0000EF93FF938091490390914A03019690934D
:100A10004A03809349032091490330914A0380910E
:100A20004703909148032817390781F487E593E03D
:100A30000E947A028DE493E00E94B40384E08093E4
:100A40004B0310924A031092490315BCFF91EF919A
:100A5000BF91AF919F918F917F916F915F914F91D6
:100A60003F912F910F900FBE0F901F901895DC01B2
:100A7000EC918E2F90E0FC013197E730F105A0F565
:100A8000E75BFF4F0C94F3098EE691E090934803E7
:100A900080934703089587EB90E0909348038093F9
:100AA000470308958AE790E09093480380934703B3
:100AB00008958EE691E0909348038093470308954C
:100AC00087EB90E0909348038093470308958EE668
:100AD00091E09093480380934703089587EB90E05B
:100AE0009093480380934703089514BC15BC81E09C
:100AF00080936E00109280001092810080936F00AE
:100B0000E9E6F0E08CE0808380818360808383E08D
:100B10008DBB78948AB18B7F8AB98AB1877F8AB975
:100B200087B18F7E87B987B1806287B903E022E001
:100B300041E060E08EE493E00E947E0082E593E075
:100B40000E949A078DE493E00E94B40310924B0335
:100B5000349BC5C088B1806288B980914B038230D4
:100B6000C9F128F4882361F0813021F1F1CF84307C
:100B700009F473C008F455C0853009F49CC0E8CF6F
:100B800080914403882359F062E972E082E593E0A2
:100B90000E9486076DE082E593E00E94930761EA78
:100BA00072E08DE493E00E9491031F9B03C081E0FB
:100BB00080934B0380914403882351F26FEA72E0E3
:100BC00082E593E00E9486076DE082E593E00E9453
:100BD0009307BECF80914403882359F06FEB72E0F6
:100BE00082E593E00E9486076DE082E593E00E9433
:100BF000930760E071E087E593E00E948B02882311
:100C000041F087E593E00E94050282E08093810035
:100C10009FCF8DE493E00E94B40383E080934B0365
:100C200097CF80914403882359F06EEC72E082E5FF
:100C300093E00E9486076DE082E593E00E949307AF
:100C400080E091E00E94370560E071E087E593E085
:100C50000E94270285E085BD7BCF809144038823D5
:100C600059F06EED72E082E593E00E9486076DE038
:100C700082E593E00E9493076EEE72E08DE493E0CC
:100C80000E9491031F9964CF8DE493E00E94B40306
:100C90006CEF72E08DE493E00E9491032FEF83EDFF
:100CA00090E3215080409040E1F700C0000081E0D7
:100CB00080934B034DCF80914403882359F065E026
:100CC00073E082E593E00E9486076DE082E593E0A1
:100CD0000E94930787E593E00E947E0139CF88B197
:100CE0008F7D88B935CF6FEF7FEF81E090E00E9474
:100CF000C20308956FEF7FEF80E090E00E94C2038F
:100D000008950895089584B1886084B9E0EBF0E017
:100D100082E080838081806480831092B1008CE7C0
:100D20008093B300089583E08093B10008951092FA
:100D3000B10008950895FC0171836083CB01A0E0A8
:100D4000B0E0880F991FAA1FBB1F880F991FAA1F09
:100D5000BB1F9C01AD01220F331F441F551F220FE3
:100D6000331F441F551F60E074E284EF90E00E943F
:100D7000D109215031093093C5002093C400089552
:100D8000FC016283613019F0623039F00CC0E2EC92
:100D9000F0E08081877F80830895E2ECF0E080813D
:100DA000886080830895E2ECF0E08081877F808313
:100DB0000895FC016383673019F128F4653041F030
:100DC000663091F041C0683039F1693089F13CC03A
:100DD000E2ECF0E080818B7F808380818B7F808359
:100DE00080818D7F80830895E2ECF0E080818B7FAD
:100DF000808380818B7F808380818260808308955F
:100E0000E2ECF0E080818B7F80838081846080834E
:100E100080818D7F80830895E2ECF0E080818B7F7C
:100E20008083808184608083808182608083089554
:100E3000E2ECF0E080818460808380818460808344
:100E40008081826080830895E2ECF0E080818B7F76
:100E50008083808184608083808182608083089524
:100E6000FC0164836E3429F06F34A9F06534E1F439
:100E700009C0E2ECF0E080818F7D808380818F7EED
:100E800080830895E2ECF0E080818062808380813D
:100E9000806180830895E2ECF0E08081806280834D
:100EA00080818F7E80830895E2ECF0E080818F7DE9
:100EB000808380818F7E80830895CF93DF93EC01C0
:100EC00060E875E20E949B0661E0CE010E94C006C8
:100ED00068E0CE010E94D9066EE4CE010E94300780
:100EE0008AB182608AB9E1ECF0E088E18083808198
:100EF00080688083E2ECF0E080818F77808380815E
:100F00008F7B80837894DF91CF910895FB0190814E
:100F1000992341F08091C00085FFFCCF9093C600DB
:100F20003196F5CF08958091C00085FFFCCF609386
:100F3000C6000895CF93DF93EC0168E173E00E944F
:100F400086076DE0CE010E9493076AE273E0CE014E
:100F50000E9486076DE0CE010E94930764E373E070
:100F6000CE010E9486076DE0CE010E949307DF91BB
:100F7000CF91089508950895FC01608324B181E024
:100F800090E002C0880F991F6A95E2F7822B84B91E
:100F9000089545B121E030E0FC01008002C0220F3D
:100FA000331F0A94E2F7242B25B921E02183089509
:100FB000FC0195B121E030E0008002C0220F331F18
:100FC0000A94E2F72095292325B9118208955058F3
:100FD000BB27AA270E94FF070C94DE080E94D008B6
:100FE00038F00E94D70820F039F49F3F19F426F416
:100FF0000C94CD080EF4E095E7FB0C94C708E92F9C
:101000000E94EF0858F3BA17620773078407950721
:1010100020F079F4A6F50C9411090EF4E0950B2E4E
:10102000BA2FA02D0B01B90190010C01CA01A0013A
:101030001124FF27591B99F0593F50F4503E68F195
:101040001A16F040A22F232F342F4427585FF3CFD6
:10105000469537952795A795F0405395C9F77EF4A7
:101060001F16BA0B620B730B840BBAF09150A1F0F0
:10107000FF0FBB1F661F771F881FC2F70EC0BA0F76
:10108000621F731F841F48F4879577956795B795FE
:10109000F7959E3F08F0B0CF9395880F08F09927F9
:1010A000EE0F9795879508950E945B086894B1119B
:1010B0000C94120908950E94F70888F09F5798F041
:1010C000B92F9927B751B0F0E1F0660F771F881F4D
:1010D000991F1AF0BA95C9F714C0B13091F00E9467
:1010E0001109B1E008950C941109672F782F882712
:1010F000B85F39F0B93FCCF3869577956795B3958E
:10110000D9F73EF490958095709561957F4F8F4FFC
:101110009F4F0895E89409C097FB3EF49095809501
:10112000709561957F4F8F4F9F4F9923A9F0F92FAD
:1011300096E9BB279395F695879577956795B7952B
:10114000F111F8CFFAF4BB0F11F460FF1BC06F5F11
:101150007F4F8F4F9F4F16C0882311F096E911C023
:10116000772321F09EE8872F762F05C0662371F044
:1011700096E8862F70E060E02AF09A95660F771F58
:10118000881FDAF7880F9695879597F9089597F94C
:101190009F6780E870E060E008959FEF80EC08951D
:1011A00000240A9416161706180609060895002446
:1011B0000A9412161306140605060895092E0394C0
:1011C000000C11F4882352F0BB0F40F4BF2B11F434
:1011D00060FF04C06F5F7F4F8F4F9F4F089557FD93
:1011E0009058440F551F59F05F3F71F04795880F95
:1011F00097FB991F61F09F3F79F08795089512162C
:1012000013061406551FF2CF4695F1DF08C01616D7
:1012100017061806991FF1CF869571056105089488
:101220000895E894BB2766277727CB0197F908959F
:101230000E942B090C94DE080E94D00838F00E940E
:10124000D70820F0952311F00C94C7080C94CD0812
:1012500011240C9412090E94EF0870F3959FC1F3BA
:10126000950F50E0551F629FF001729FBB27F00D54
:10127000B11D639FAA27F00DB11DAA1F649F6627A9
:10128000B00DA11D661F829F2227B00DA11D621FF8
:10129000739FB00DA11D621F839FA00D611D221FB2
:1012A000749F3327A00D611D231F849F600D211D96
:1012B000822F762F6A2F11249F5750409AF0F1F019
:1012C00088234AF0EE0FFF1FBB1F661F771F881F82
:1012D00091505040A9F79E3F510580F00C94C708EB
:1012E0000C9412095F3FE4F3983ED4F3869577950A
:1012F0006795B795F795E7959F5FC1F7FE2B880F28
:10130000911D9695879597F908950E94B90930F037
:101310009F3710F40C9412090C9490090C94AB09AB
:10132000882371F4772321F09850872B762F07C0FC
:10133000662311F499270DC09051862B70E060E070
:101340002AF09A95660F771F881FDAF7880F96950F
:10135000879597F908959F3F31F0915020F4879534
:1013600077956795B795880F911D9695879597F90D
:1013700008950E94F708A0F0BEE7B91788F4BB27CC
:101380009F3860F41616B11D672F782F8827985F55
:10139000F7CF869577956795B11D93959639C8F3E4
:1013A0000895A1E21A2EAA1BBB1BFD010DC0AA1FA6
:1013B000BB1FEE1FFF1FA217B307E407F50720F0BE
:1013C000A21BB30BE40BF50B661F771F881F991F39
:1013D0001A9469F760957095809590959B01AC0182
:1013E000BD01CF010895EE0FFF1F0590F491E02D90
:1013F0000994AEE0B0E0EFEFF9E00C94BA0C0D897F
:101400001E8986E08C831A8309838FEF9FE79E8372
:101410008D83AE01475E5F4F6F89788DCE01019657
:101420000E941B0AEF81F885E00FF11F10822E96B3
:10143000E4E00C94D60CABE0B0E0E1E2FAE00C940E
:10144000AC0C6C017B018A01FC011782168283813E
:1014500081FFCCC1CE0101963C01F6019381F701D9
:1014600093FD859193FF81917F01882309F4BAC18F
:10147000853239F493FD859193FF81917F01853207
:1014800029F4B60190E00E94120CE7CF912C212C98
:10149000312CFFE1F315D8F08B3279F038F480323B
:1014A00079F08332A1F4232D20611DC08D3261F0CB
:1014B000803369F4232D216016C0832D8260382E7D
:1014C000E32DE4603E2E2AC0F32DF8601DC037FCEA
:1014D0002DC020ED280F2A3040F08E32B9F436FCB2
:1014E00081C1232D2064322E19C036FE06C08AE049
:1014F000989E200D1124922E11C0EAE02E9E200D00
:101500001124222EF32DF0623F2E08C08C3621F4D8
:10151000832D8068382E02C0883641F4F70193FD90
:10152000859193FF81917F018111B3CF982F9F7D8A
:101530009554933028F40C5F1F4F9FE399830DC09F
:10154000833631F0833771F0833509F059C021C0FB
:10155000F801808189830E5F1F4F88248394912C2A
:10156000530113C02801F2E04F0E511CF801A08076
:10157000B18036FE03C0692D70E002C06FEF7FEFCF
:10158000C5010E94070C4C018201F32DFF773F2E0D
:1015900016C0280122E0420E511CF801A080B18043
:1015A00036FE03C0692D70E002C06FEF7FEFC5010A
:1015B0000E94FC0B4C01F32DF0683F2E820133FC9E
:1015C0001BC0822D90E088169906B0F4B60180E227
:1015D00090E00E94120C2A94F4CFF50137FC85911B
:1015E00037FE81915F01B60190E00E94120C21103C
:1015F0002A9421E0821A91088114910471F7E8C0BD
:10160000843611F0893641F5F80137FE07C0608154
:101610007181828193810C5F1F4F08C0608171814D
:10162000072E000C880B990B0E5F1F4FF32DFF76D2
:101630003F2E97FF09C090958095709561957F4FDB
:101640008F4F9F4FF0683F2E2AE030E0A3010E94A9
:101650004E0C882E861845C0853731F4232D2F7EF9
:10166000B22E2AE030E025C0932D997FB92E8F3617
:10167000C1F018F4883579F0B5C0803719F0883793
:1016800021F0B0C0E92FE061BE2EB4FE0DC0FB2DED
:10169000F460BF2E09C034FE0AC0292F2660B22E86
:1016A00006C028E030E005C020E130E002C020E1C3
:1016B00032E0F801B7FE07C06081718182819381B9
:1016C0000C5F1F4F06C06081718180E090E00E5F6B
:1016D0001F4FA3010E944E0C882E8618FB2DFF770A
:1016E0003F2E36FE0DC0232D2E7FA22E891458F4D6
:1016F00034FE0BC032FC09C0832D8E7EA82E05C09F
:10170000B82CA32C03C0B82C01C0B92CA4FE0FC068
:10171000FE01E80DF11D8081803321F49A2D997E20
:10172000A92E09C0A2FE06C0B394B39404C08A2DAA
:10173000867809F0B394A3FC11C0A0FE06C0B214D1
:1017400088F4280C922C9B180EC0B21460F4B601D9
:1017500080E290E00E94120CB394F7CFB21418F418
:101760002B1802C0982C212CA4FE10C0B60180E3D7
:1017700090E00E94120CA2FE17C0A1FC03C088E7F3
:1017800090E002C088E590E0B6010CC08A2D867812
:1017900059F0A1FE02C08BE201C080E2A7FC8DE2FD
:1017A000B60190E00E94120C891438F4B60180E36F
:1017B00090E00E94120C9A94F7CF8A94F301E80DFE
:1017C000F11D8081B60190E00E94120C8110F5CFCE
:1017D000222009F442CEB60180E290E00E94120C71
:1017E0002A94F6CFF6018681978102C08FEF9FEF92
:1017F0002B96E2E10C94C80CFC01059061507040FE
:101800000110D8F7809590958E0F9F1F0895FC01C9
:101810006150704001900110D8F7809590958E0F1F
:101820009F1F08950F931F93CF93DF93FB01238195
:1018300021FD03C08FEF9FEF2CC022FF16C0468111
:101840005781248135814217530744F4A081B18127
:101850009D012F5F3F4F318320838C9326813781F9
:101860002F5F3F4F3783268314C08B01EC01FB01B0
:101870000084F185E02D0995892BE1F6D8011696B3
:101880008D919C911797019617969C938E9316971E
:10189000CE01DF91CF911F910F910895FA01AA27F0
:1018A000283051F1203181F1E8946F936E7F6E5FA3
:1018B0007F4F8F4F9F4FAF4FB1E03ED0B4E03CD051
:1018C000670F781F891F9A1FA11D680F791F8A1F34
:1018D000911DA11D6A0F711D811D911DA11D20D09B
:1018E00009F468943F912AE0269F11243019305D55
:1018F0003193DEF6CF010895462F4770405D419346
:10190000B3E00FD0C9F7F6CF462F4F70405D4A3392
:1019100018F0495D31FD4052419302D0A9F7EACF5A
:10192000B4E0A6959795879577956795BA95C9F789
:1019300000976105710508959B01AC010A2E06947C
:101940005795479537952795BA95C9F7620F731F35
:10195000841F951FA01D08952F923F924F925F9272
:101960006F927F928F929F92AF92BF92CF92DF92AF
:10197000EF92FF920F931F93CF93DF93CDB7DEB714
:10198000CA1BDB0B0FB6F894DEBF0FBECDBF0994A8
:101990002A88398848885F846E847D848C849B84FF
:1019A000AA84B984C884DF80EE80FD800C811B810D
:1019B000AA81B981CE0FD11D0FB6F894DEBF0FBE3C
:1019C000CDBFED01089510E0C1E5D0E004C0FE01F7
:1019D0000E94F3092196C235D107C9F7F894FFCFC9
:1019E000014D617175696E61207265616261737428
:1019F00065636964610042656269646120496E647F
:101A00006973706F6E6976656C00426562696461C6
:101A10007320446973706F6E69766569733A00422A
:101A20006562696461002564002C00426562696436
:101A30006120312053656C6563696F6E616461215B
:101A40000042656269646120322053656C65636998
:101A50006F6E6164612100426562696461203320B8
:101A600053656C6563696F6E6164612100426562F4
:101A700069646120342053656C6563696F6E6164CD
:101A800061210042656269646120352053656C659F
:101A900063696F6E616461210042656269646120FF
:101AA000362053656C6563696F6E61646121004225
:101AB000656269646120372053656C6563696F6E88
:101AC000616461210052242025642E253032640097
:101AD00056616C6F72204172726563616461646FFC
:101AE0003A20004D6F656E646F2E2E2E0041677593
:101AF000617264650053657276696E646F0043615C
:101B00006665205075726F00522420312E353000EA
:101B10004D616363686961746F00522420322E3016
:101B200030004D6F63686100522420322E3735003B
:101B30004C65697465205075726F00522420312EF7
:101B40003030004163686F636F6C617461646F0073
:101B5000522420312E38300043686F636F6C6174FB
:101B6000650043686F6361666500522420322E3140
:101B700030005741494E54494E4720474C4153533A
:101B800000496E73697261206F20636F706F00533C
:101B9000454C454354494E47204452494E4B004D15
:101BA000494C4C494E475F434F46464545005052CD
:101BB00045504152494E47204452494E4B005245F0
:101BC0004D4F4D56494E4720474C415353005265A7
:101BD00074697265206F20436F706F004F62726985
:101BE0006761646F0052454655454C4C494E475F0E
:101BF0004D414348494E450030202D204D6F7374B0
:101C0000726172204C7563726F0031202D20446523
:101C10006275670032202D2053616972204465622D
:041C200075670000E4
:00000001FF
