S01D000072656D61696E696E672D696E6772656469656E74732E7372656384
S11300000C9444000C947C030C9495030C946C00A5
S11300100C946C000C946C000C946C000C946C00AC
S11300200C946C000C946C000C946C000C946C009C
S11300300C946C000C946C000C946C000C946C008C
S11300400C946C000C946C000C94C4030C946C0021
S11300500C946C000C946C000C946C000C946C006C
S11300600C946C000C946C00A900B600C300D00082
S1130070DD00EA00F700E30104022A0255027602D9
S11300809C02BD023004370411241FBECFEFD8E018
S1130090DEBFCDBF12E0A0E0B1E0EEECF4E102C0BF
S11300A005900D92A632B107D9F722E0A6E2B2E09C
S11300B001C01D92AE33B207E1F710E0C3E4D0E013
S11300C004C02197FE010E946A07C234D107C9F710
S11300D00E940D040C945A0A0C940000089508958B
S11300E00F9337B181E090E0FC0102C0EE0FFF1FD7
S11300F06A95E2F7BF01632B67B937B1BC0102C04F
S1130100660F771F4A95E2F7AB01432B47B947B116
S1130110FC0102C0EE0FFF1F2A95E2F79F01242B7A
S113012027B927B102C0880F991F0A95E2F7822BDD
S113013087B90F910895DB01EC918E2F90E0FC01BB
S11301403197E730F10508F05EC0EC5CFF4F0C948A
S11301506A0788B1816088B988B18D7F88B988B110
S11301608B7F88B988B1877F88B9089588B18E7FDD
S113017088B988B1826088B988B18B7F88B988B121
S1130180877F88B9089588B1816088B988B1826011
S113019088B988B18B7F88B988B1877F88B9089579
S11301A088B18E7F88B988B18D7F88B988B1846021
S11301B088B988B1877F88B9089588B1816088B982
S11301C088B18D7F88B988B1846088B988B1877F08
S11301D088B9089588B18E7F88B988B1826088B95A
S11301E088B1846088B988B1877F88B9089588B157
S11301F0816088B988B1826088B988B1846088B91F
S113020088B1877F88B90895CF93DF93EC010E946A
S1130210010519861A861B861C861D821E821F8272
S11302201886DF91CF9108950E943E040895CF93DC
S1130230DF93EC018AE08D8385E08E8387E08F83F2
S113024019861A861B861C8661E071E0CE010E9425
S11302502A056DE0CE010E943705DF91CF91089504
S1130260AF92BF92CF92DF92EF92FF920F931F93C0
S1130270CF93DF931F92CDB7DEB77C01FC011086CC
S11302808581882311F091E09087882339F0F70164
S11302909681992319F0908592609087882351F074
S11302A0F7019681992331F09781992319F090856C
S11302B094609087F7019681992319F0208528602E
S11302C02087992339F0F7019781992319F09085B4
S11302D090619087F7019781992319F02085206216
S11302E02087882331F0992321F0F70180858064E9
S11302F08087CE2CDF2C66E171E0C7010E942A05BD
S11303006DE0C7010E9437056AE271E0C7010E94EF
S11303102A056DE0C7010E94370500E010E00730B0
S11303201105A4F5F701408581E090E09C01002EC1
S113033002C0220F331F0A94E2F7842F90E0822335
S1130340932318161906FCF4C80101969F938F9302
S11303508FE391E09F938F93CE0101965C019F936D
S11303608F930E947007B5018C2D9D2D0E942A0544
S11303706DE08C2D9D2D0E9437050F900F900F90EE
S11303800F900F900F900F5F1F4FC9CF0F90DF9109
S1130390CF911F910F91FF90EF90DF90CF90BF907E
S11303A0AF900895CF93DF93DB01EC914E2F50E093
S11303B0FA013197E730F10508F004C1EC01E55C7E
S11303C0FF4F0C946A078D818823D1F081508D836F
S11303D020E030E040EC5FE369857A858B859C857D
S11303E00E945F0569877A878B879C8762E471E046
S11303F0CE010E942A056DE0CE010E943705E2C0BD
S1130400CE010E943001DEC08D818823F9F09E81E7
S11304109923E1F081508D8391509E8320E030E058
S113042040E050E469857A858B859C850E945F0550
S113043069877A878B879C8768E571E0CE010E9483
S11304402A056DE0CE010E943705BCC0CE010E9492
S11304503001B8C08D81882321F19E81992309F14F
S11304602F812223F1F081508D8391509E8321505E
S11304702F8320E030E040E350E469857A858B8562
S11304809C850E945F0569877A878B879C876EE6C7
S113049071E0CE010E942A056DE0CE010E9437056D
S11304A091C0CE010E9430018DC08E818823D1F08D
S11304B081508E8320E030E040E85FE369857A85EF
S11304C08B859C850E945F0569877A878B879C87CB
S11304D064E871E0CE010E942A056DE0CE010E941D
S11304E0370570C0CE010E9430016CC08E81882314
S11304F0F9F09F819923E1F081508E8391509F837D
S113050026E636E646EE5FE369857A858B859C852B
S11305100E945F0569877A878B879C876AE971E007
S1130520CE010E942A056DE0CE010E9437054AC023
S1130530CE010E94300146C08F818823D1F08150C2
S11305408F8320E030E040EC5FE369857A858B851A
S11305509C850E945F0569877A878B879C8760EBFF
S113056071E0CE010E942A056DE0CE010E9437059C
S113057029C0CE010E94300125C08D818823F9F065
S11305809F819923E1F081508D8391509F8326E6CA
S113059036E646E050E469857A858B859C850E9421
S11305A05F0569877A878B879C8766EC71E0CE014B
S11305B00E942A056DE0CE010E94370503C0CE01DA
S11305C00E943001DF91CF9108958F929F92AF9254
S11305D0BF92CF92DF92EF92FF920F931F93CF932C
S11305E0DF93CDB7DEB72A970FB6F894DEBF0FBE00
S11305F0CDBF8C01FC0181849284A384B484C501A1
S1130600B4010E94CB056B017C01072E000C880B02
S1130610990B0E9403069B01AC01C501B4010E9421
S11306205E0520E030E048EC52E40E948F060E9410
S1130630FC060E94CB057F936F93DF92CF928CEDE3
S113064091E09F938F93CE0101967C019F938F93AA
S11306500E94700767EE71E0C8010E942A05B70185
S1130660C8010E942A056DE0C8010E9437050FB633
S1130670F894DEBF0FBECDBF2A960FB6F894DEBF46
S11306800FBECDBFDF91CF911F910F91FF90EF90DF
S1130690DF90CF90BF90AF909F908F9008950F936D
S11306A01F93CF93DF93EC018B01019779F46F3F94
S11306B07F4F61F481E392E00E9404018CE292E0B6
S11306C00E94010588E292E00E946E00CD2B79F42D
S11306D00F3F1F4F61F488E292E00E946F008CE2AA
S11306E092E00E943E0481E392E00E941401DF91B3
S11306F0CF911F910F9108951F920F920FB60F92F1
S113070011248F9380910001873030F4809100018F
S11307108F5F8093000103C081E0809300018F917B
S11307200F900FBE0F901F9018951F920F920FB647
S11307300F9211242F933F934F935F936F937F9363
S11307408F939F93AF93BF93EF93FF934A9907C0FF
S113075060E071E081E392E00E94D20104C081E391
S113076092E00E941701FF91EF91BF91AF919F9189
S11307708F917F916F915F914F913F912F910F9046
S11307800FBE0F901F9018951F920F920FB60F92E5
S113079011242F933F934F935F936F937F938F9382
S11307A09F93AF93BF93EF93FF938091C6008033E1
S11307B011F410922702813319F491E090932702E7
S11307C0823319F482E080932702809127028130DA
S11307D049F018F0823051F00FC081E392E00E949A
S11307E0E5020AC081E08093260206C01092260228
S11307F08CE292E00E943E05FF91EF91BF91AF9190
S11308009F918F917F916F915F914F913F912F9124
S11308100F900FBE0F901F901895E9E6F0E08CE062
S1130820808380818360808383E08DBB78948AB1E8
S11308308B7F8AB98AB1877F8AB903E022E041E0DD
S113084060E088E292E00E9470008CE292E00E94F4
S11308503E0560E071E088E292E00E949B00F9CFDF
S11308606FEF7FEF81E090E00E944F0308956FEFF8
S11308707FEF80E090E00E944F0308950895FC010B
S113088071836083CB01A0E0B0E0880F991FAA1F99
S1130890BB1F880F991FAA1FBB1F9C01AD01220F0C
S11308A0331F441F551F220F331F441F551F60E081
S11308B074E284EF90E00E9448072150310930939C
S11308C0C5002093C4000895FC016283613019F0CF
S11308D0623039F00CC0E2ECF0E08081877F8083E5
S11308E00895E2ECF0E08081886080830895E2EC72
S11308F0F0E08081877F80830895FC016383673003
S113090019F128F4653041F0663091F041C0683047
S113091039F1693089F13CC0E2ECF0E080818B7FF1
S1130920808380818B7F808380818D7F8083089505
S1130930E2ECF0E080818B7F808380818B7F8083F9
S11309408081826080830895E2ECF0E080818B7F77
S1130950808380818460808380818D7F80830895FB
S1130960E2ECF0E080818B7F8083808184608083EF
S11309708081826080830895E2ECF0E0808184606D
S113098080838081846080838081826080830895F5
S1130990E2ECF0E080818B7F8083808184608083BF
S11309A08081826080830895FC0164836E3429F021
S11309B06F34A9F06534E1F409C0E2ECF0E0808121
S11309C08F7D808380818F7E80830895E2ECF0E0C8
S11309D08081806280838081806180830895E2ECDD
S11309E0F0E080818062808380818F7E808308959F
S11309F0E2ECF0E080818F7D808380818F7E808334
S1130A000895CF93DF93EC0160E875E20E943F0400
S1130A1061E0CE010E94640468E0CE010E947D047E
S1130A206EE4CE010E94D4048AB182608AB9E1ECFA
S1130A30F0E088E18083808180688083E2ECF0E0EC
S1130A4080818F77808380818F7B80837894DF910E
S1130A50CF910895FB019081992341F08091C000CA
S1130A6085FFFCCF9093C6003196F5CF0895809111
S1130A70C00085FFFCCF6093C6000895CF93DF9339
S1130A80EC016AEF71E00E942A056DE0CE010E943C
S1130A9037056CE072E0CE010E942A056DE0CE01BC
S1130AA00E94370566E172E0CE010E942A056DE0DE
S1130AB0CE010E943705DF91CF9108955058BB278E
S1130AC0AA270E9476050C9455060E94470638F022
S1130AD00E944E0620F039F49F3F19F426F40C943A
S1130AE044060EF4E095E7FB0C943E06E92F0E94C1
S1130AF0660658F3BA17620773078407950720F050
S1130B0079F4A6F50C9488060EF4E0950B2EBA2F12
S1130B10A02D0B01B90190010C01CA01A0011124FF
S1130B20FF27591B99F0593F50F4503E68F11A16AB
S1130B30F040A22F232F342F4427585FF3CF46953C
S1130B4037952795A795F0405395C9F77EF41F165E
S1130B50BA0B620B730B840BBAF09150A1F0FF0F28
S1130B60BB1F661F771F881FC2F70EC0BA0F621F14
S1130B70731F841F48F4879577956795B795F79504
S1130B809E3F08F0B0CF9395880F08F09927EE0F99
S1130B909795879508950E94D2056894B1110C9495
S1130BA0890608950E946E0688F09F5798F0B92F21
S1130BB09927B751B0F0E1F0660F771F881F991F8E
S1130BC01AF0BA95C9F714C0B13091F00E948806A2
S1130BD0B1E008950C948806672F782F8827B85FB2
S1130BE039F0B93FCCF3869577956795B395D9F7E6
S1130BF03EF490958095709561957F4F8F4F9F4FF0
S1130C000895E89409C097FB3EF4909580957095FB
S1130C1061957F4F8F4F9F4F9923A9F0F92F96E944
S1130C20BB279395F695879577956795B795F111B9
S1130C30F8CFFAF4BB0F11F460FF1BC06F5F7F4F56
S1130C408F4F9F4F16C0882311F096E911C0772368
S1130C5021F09EE8872F762F05C0662371F096E871
S1130C60862F70E060E02AF09A95660F771F881F40
S1130C70DAF7880F9695879597F9089597F99F67FE
S1130C8080E870E060E008959FEF80EC0895002410
S1130C900A941616170618060906089500240A94DD
S1130CA012161306140605060895092E0394000C63
S1130CB011F4882352F0BB0F40F4BF2B11F460FFF2
S1130CC004C06F5F7F4F8F4F9F4F089557FD90581B
S1130CD0440F551F59F05F3F71F04795880F97FBFC
S1130CE0991F61F09F3F79F08795089512161306B6
S1130CF01406551FF2CF4695F1DF08C016161706E5
S1130D001806991FF1CF8695710561050894089519
S1130D10E894BB2766277727CB0197F908950E94AB
S1130D20A2060C9455060E94470638F00E944E060F
S1130D3020F0952311F00C943E060C9444061124E3
S1130D400C9489060E94660670F3959FC1F3950F73
S1130D5050E0551F629FF001729FBB27F00DB11D3B
S1130D60639FAA27F00DB11DAA1F649F6627B00DCB
S1130D70A11D661F829F2227B00DA11D621F739FB4
S1130D80B00DA11D621F839FA00D611D221F749FC2
S1130D903327A00D611D231F849F600D211D822F09
S1130DA0762F6A2F11249F5750409AF0F1F0882330
S1130DB04AF0EE0FFF1FBB1F661F771F881F91505D
S1130DC05040A9F79E3F510580F00C943E060C94C8
S1130DD089065F3FE4F3983ED4F38695779567954B
S1130DE0B795F795E7959F5FC1F7FE2B880F911D87
S1130DF09695879597F908950E94300730F09F37AC
S1130E0010F40C9489060C9407070C942207882389
S1130E1071F4772321F09850872B762F07C066232F
S1130E2011F499270DC09051862B70E060E02AF0F0
S1130E309A95660F771F881FDAF7880F969587951E
S1130E4097F908959F3F31F0915020F48795779555
S1130E506795B795880F911D9695879597F908958D
S1130E600E946E06A0F0BEE7B91788F4BB279F382E
S1130E7060F41616B11D672F782F8827985FF7CF77
S1130E80869577956795B11D93959639C8F308951E
S1130E90A1E21A2EAA1BBB1BFD010DC0AA1FBB1F7A
S1130EA0EE1FFF1FA217B307E407F50720F0A21BEC
S1130EB0B30BE40BF50B661F771F881F991F1A9459
S1130EC069F760957095809590959B01AC01BD0183
S1130ED0CF010895EE0FFF1F0590F491E02D0994C2
S1130EE0AEE0B0E0E6E7F7E00C94310A0D891E8924
S1130EF086E08C831A8309838FEF9FE79E838D831B
S1130F00AE01475E5F4F6F89788DCE0101960E94D6
S1130F109207EF81F885E00FF11F10822E96E4E02E
S1130F200C944D0AABE0B0E0E8E9F7E00C94230A36
S1130F306C017B018A01FC0117821682838181FF87
S1130F40CCC1CE0101963C01F6019381F70193FDDA
S1130F50859193FF81917F01882309F4BAC1853279
S1130F6039F493FD859193FF81917F01853229F4B2
S1130F70B60190E00E948909E7CF912C212C312CF5
S1130F80FFE1F315D8F08B3279F038F4803279F040
S1130F908332A1F4232D20611DC08D3261F0803392
S1130FA069F4232D216016C0832D8260382EE32D31
S1130FB0E4603E2E2AC0F32DF8601DC037FC2DC01E
S1130FC020ED280F2A3040F08E32B9F436FC81C16E
S1130FD0232D2064322E19C036FE06C08AE0989E66
S1130FE0200D1124922E11C0EAE02E9E200D112412
S1130FF0222EF32DF0623F2E08C08C3621F4832D6F
S11310008068382E02C0883641F4F70193FD85913B
S113101093FF81917F018111B3CF982F9F7D9554C8
S1131020933028F40C5F1F4F9FE399830DC08336E0
S113103031F0833771F0833509F059C021C0F801CC
S1131040808189830E5F1F4F88248394912C5301E0
S113105013C02801F2E04F0E511CF801A080B180AA
S113106036FE03C0692D70E002C06FEF7FEFC5014B
S11310700E947E094C018201F32DFF773F2E16C09A
S1131080280122E0420E511CF801A080B18036FEF6
S113109003C0692D70E002C06FEF7FEFC5010E94AD
S11310A073094C01F32DF0683F2E820133FC1BC001
S11310B0822D90E088169906B0F4B60180E290E0A3
S11310C00E9489092A94F4CFF50137FC859137FEF3
S11310D081915F01B60190E00E94890921102A9450
S11310E021E0821A91088114910471F7E8C08436D2
S11310F011F0893641F5F80137FE07C0608171812E
S1131100828193810C5F1F4F08C060817181072E1B
S1131110000C880B990B0E5F1F4FF32DFF763F2EAB
S113112097FF09C090958095709561957F4F8F4F7B
S11311309F4FF0683F2E2AE030E0A3010E94C509CA
S1131140882E861845C0853731F4232D2F7EB22E84
S11311502AE030E025C0932D997FB92E8F36C1F057
S113116018F4883579F0B5C0803719F0883721F044
S1131170B0C0E92FE061BE2EB4FE0DC0FB2DF460BB
S1131180BF2E09C034FE0AC0292F2660B22E06C025
S113119028E030E005C020E130E002C020E132E088
S11311A0F801B7FE07C060817181828193810C5F71
S11311B01F4F06C06081718180E090E00E5F1F4F79
S11311C0A3010E94C509882E8618FB2DFF773F2EA8
S11311D036FE0DC0232D2E7FA22E891458F434FE22
S11311E00BC032FC09C0832D8E7EA82E05C0B82CFE
S11311F0A32C03C0B82C01C0B92CA4FE0FC0FE015F
S1131200E80DF11D8081803321F49A2D997EA92E59
S113121009C0A2FE06C0B394B39404C08A2D867894
S113122009F0B394A3FC11C0A0FE06C0B21488F464
S1131230280C922C9B180EC0B21460F4B60180E204
S113124090E00E948909B394F7CFB21418F42B18D4
S113125002C0982C212CA4FE10C0B60180E390E0BB
S11312600E948909A2FE17C0A1FC03C088E790E090
S113127002C088E590E0B6010CC08A2D867859F04A
S1131280A1FE02C08BE201C080E2A7FC8DE2B601A0
S113129090E00E948909891438F4B60180E390E053
S11312A00E9489099A94F7CF8A94F301E80DF11DFD
S11312B08081B60190E00E9489098110F5CF222037
S11312C009F442CEB60180E290E00E9489092A9492
S11312D0F6CFF6018681978102C08FEF9FEF2B96A0
S11312E0E2E10C943F0AFC0105906150704001104A
S11312F0D8F7809590958E0F9F1F0895FC0161503B
S1131300704001900110D8F7809590958E0F9F1F23
S113131008950F931F93CF93DF93FB01238121FD46
S113132003C08FEF9FEF2CC022FF16C04681578168
S1131330248135814217530744F4A081B1819D0172
S11313402F5F3F4F318320838C93268137812F5F1A
S11313503F4F3783268314C08B01EC01FB010084CB
S1131360F185E02D0995892BE1F6D80116968D912A
S11313709C911797019617969C938E931697CE017E
S1131380DF91CF911F910F910895FA01AA27283078
S113139051F1203181F1E8946F936E7F6E5F7F4F3E
S11313A08F4F9F4FAF4FB1E03ED0B4E03CD0670FBA
S11313B0781F891F9A1FA11D680F791F8A1F911D0D
S11313C0A11D6A0F711D811D911DA11D20D009F45D
S11313D068943F912AE0269F11243019305D31939F
S11313E0DEF6CF010895462F4770405D4193B3E088
S11313F00FD0C9F7F6CF462F4F70405D4A3318F02F
S1131400495D31FD4052419302D0A9F7EACFB4E0DF
S1131410A6959795879577956795BA95C9F7009797
S11314206105710508959B01AC010A2E0694579538
S1131430479537952795BA95C9F7620F731F841F8F
S1131440951FA01D08952F923F924F925F926F9225
S11314507F928F929F92AF92BF92CF92DF92EF9240
S1131460FF920F931F93CF93DF93CDB7DEB7CA1BC1
S1131470DB0B0FB6F894DEBF0FBECDBF09942A88EC
S1131480398848885F846E847D848C849B84AA8494
S1131490B984C884DF80EE80FD800C811B81AA8121
S11314A0B981CE0FD11D0FB6F894DEBF0FBECDBFEC
S11314B0ED01089510E0C3E4D0E004C0FE010E94F1
S11114C06A072196C434D107C9F7F894FFCF08
S11314CE014D617175696E6120726561626173743B
S11314DE65636964610042656269646120496E6492
S11314EE6973706F6E6976656C00426562696461DA
S11314FE7320446973706F6E69766569733A00255B
S113150E640042656269646120312053656C6563D1
S113151E696F6E61646121004265626964612032A3
S113152E2053656C6563696F6E6164612100426569
S113153E6269646120332053656C6563696F6E6103
S113154E6461210042656269646120342053656CD4
S113155E6563696F6E6164612100426562696461ED
S113156E20352053656C6563696F6E61646121007B
S113157E42656269646120362053656C6563696FE8
S113158E6E61646121004265626964612037205393
S113159E656C6563696F6E61646121005224202558
S11315AE642E253032640056616C6F722041727263
S11315BE6563616461646F3A200030202D204D6FA5
S11315CE7374726172204C7563726F0031202D201A
S11315DE44656275670032202D2053616972204480
S10915EE65627567000050
S9030000FC
