:100000000C9434000C9451000C9451000C94510049
:100010000C9451000C9451000C9451000C9451001C
:100020000C9451000C9451000C9451000C9451000C
:100030000C9451000C9451000C9451000C945100FC
:100040000C9451000C9451000C9453000C945100EA
:100050000C9451000C9451000C9451000C945100DC
:100060000C9451000C94510011241FBECFEFD8E026
:10007000DEBFCDBF11E0A0E0B1E0E4E4F2E002C0F9
:1000800005900D92A636B107D9F721E0A6E6B1E0BA
:1000900001C01D92AA36B207E1F70E948B000C94B2
:1000A00020010C9400001F920F920FB60F921124A2
:1000B0008F939F9310926801109266018091C60001
:1000C000803311F410926901813319F491E0909317
:1000D0006901823319F482E08093690181E08093A1
:1000E00068019F918F910F900FBE0F901F901895F0
:1000F00082E08AB9E1ECF0E088E1808386E08093D9
:10010000C2008081806880831092C50087E680935A
:10011000C400789408950E9478000E94E8008091BD
:1001200068018823B9F1809169018130C9F018F024
:10013000823029F12FC080916701813039F480E04D
:1001400091E00E94D4008DE00E94E1008091660160
:10015000811102C00E94FE0081E0809366011AC0F6
:1001600080916701813039F481E191E00E94D400EF
:100170008DE00E94E10081E0809367010BC0109246
:10018000670180916601811102C00E94E80081E050
:10019000809366012FEF84E39CE0215080409040E3
:1001A000E1F700C00000BBCFFC0107C09091C00088
:1001B00095FFFCCF8093C600319680818111F6CFE8
:1001C00008959091C00095FFFCCF8093C6000895DC
:1001D0008CE191E00E94D4008DE00E94E1008EE26B
:1001E00091E00E94D4008DE00E94E10088E391E05C
:1001F0000E94D4008DE00E94E100089587E491E020
:100200000E94D40080E591E00E94D4008DE00E941D
:10021000E10083E591E00E94D40080E591E00E9436
:10022000D4008DE00E94E1008CE591E00E94D400B2
:1002300080E591E00E94D4008DE00E94E1000895E5
:04024000F894FFCF60
:100244006D6F737472616E646F2070726F6669741F
:10025400004D6F646F2064656275670030202D2047
:100264004D6F7374726172204C7563726F0031202C
:100274002D2044656275670032202D205361697218
:10028400204465627567005065636120313A20003F
:100294007878005065636120323A200050656361CC
:0602A40020333A200000A7
:00000001FF
