:100000000C9436000C945E000C945E000C945E0020
:100010000C945E000C945E000C945E000C945E00E8
:100020000C945E000C945E000C945E000C945E00D8
:100030000C945E000C945E000C945E000C945E00C8
:100040000C945E000C945E000C945E000C945E00B8
:100050000C945E000C945E000C945E000C945E00A8
:100060000C945E000C945E00DF01E60111241FBEBB
:10007000CFEFD8E0DEBFCDBF11E0A0E0B1E0E0E01F
:10008000F4E002C005900D92AC32B107D9F721E03F
:10009000ACE2B1E001C01D92AD32B207E1F710E071
:1000A000C5E3D0E004C02197FE010E94ED01C433F6
:1000B000D107C9F70E948C010C94F3010C94000045
:1000C0008AB180618AB98AB180628AB98AB1806452
:1000D0008AB98AB180688AB984B1816084B984B1EF
:1000E000826084B908950895411104C085B18E7F5E
:1000F00085B903C085B1816085B98BB18F70962FAA
:10010000907F892B8BB935E03A95F1F7000085B1E6
:10011000826085B985E08A95F1F7000085B18D7F11
:1001200085B990EF9A95F1F72BB130E1639FC0014B
:1001300011242F70822B8BB985E08A95F1F700008E
:1001400085B1826085B995E09A95F1F7000085B197
:100150008D7F85B930EF3A95F1F7411108C06430D1
:1001600030F48FE39FE10197F1F700C0000008959C
:10017000CF93DF93EC0185B18E7F85B985B18D7FFB
:1001800085B92FEF89EF90E0215080409040E1F752
:1001900000C000008BB18F7080638BB925E02A9579
:1001A000F1F7000085B1826085B985E08A95F1F7A5
:1001B000000085B18D7F85B990EF9A95F1F78FE1B9
:1001C0009EE40197F1F700C0000095E09A95F1F7E1
:1001D000000085B1826085B925E02A95F1F700001D
:1001E00085B18D7F85B980EF8A95F1F78FE193E036
:1001F0000197F1F700C0000095E09A95F1F7000033
:1002000085B1826085B925E02A95F1F7000085B1B6
:100210008D7F85B980EF8A95F1F78BB18F70806201
:100220008BB995E09A95F1F7000085B1826085B9A8
:1002300025E02A95F1F7000085B18D7F85B980EF23
:100240008A95F1F740E068E2CE010E94740040E038
:1002500068E0CE010E94740040E061E0CE010E949F
:10026000740040E06CE0CE010E94740040E060E861
:10027000CE010E947400DF91CF9108950F931F93D8
:10028000CF93DF938C01EB016881662331F041E06D
:10029000C8010E9474002196F7CFDF91CF911F9182
:1002A0000F910895613019F0623031F0089540E007
:1002B00060E80E947400089540E060EC0E947400C1
:1002C0000895CF93DF93EC0140E061E00E94740059
:1002D00061E0CE010E945201DF91CF9108950F930A
:1002E0001F93CF93DF93EC018B01019739F46F3F9C
:1002F0007F4F21F48CE291E00E946000CD2B39F415
:100300000F3F1F4F21F48CE291E00E947300DF91B8
:10031000CF911F910F9108958CE291E00E94B80057
:1003200061E08CE291E00E94520160E071E08CE2B9
:1003300091E00E943E012FEF89E698E12150804034
:100340009040E1F700C000008CE291E00E94610162
:100350006BE071E08CE291E00E943E012FEF83EDB3
:1003600090E3215080409040E1F700C0000062E03F
:100370008CE291E00E94520166E171E08CE291E032
:100380000E943E012FEF83ED90E32150804090408A
:10039000E1F700C000008CE291E00E94610161E29F
:1003A00071E08CE291E00E943E012FEF83ED90E33B
:1003B000215080409040E1F700C00000C5CF6FEFB2
:1003C0007FEF81E090E00E946F0108956FEF7FEF73
:1003D00080E090E00E946F010895EE0FFF1F0590EE
:1003E000F491E02D099410E0C5E3D0E004C0FE01D3
:1003F0000E94ED012196C633D107C9F7F894FFCFCB
:100400004F6C6120636F726E6F21004C696E686182
:1004100020312E2E2E004C696E686120322E2E2E39
:0C0420000041706167616E646F21000094
:00000001FF
