S00E000056616C7665732E73726563A5
S11300000C9434000C943E000C943E000C943E007E
S11300100C943E000C943E000C943E000C943E0064
S11300200C943E000C943E000C943E000C943E0054
S11300300C943E000C943E000C943E000C943E0044
S11300400C943E000C943E000C943E000C943E0034
S11300500C943E000C943E000C943E000C943E0024
S11300600C943E000C943E0011241FBECFEFD8E048
S1130070DEBFCDBF0E9440000C94B0000C94000081
S1130080CF93DF9300D000D000D0CDB7DEB71AB83D
S1130090CE0101960E948400CE0103960E94840042
S11300A0CE0105960E94840062E0CE0101960E9472
S11300B0850064E0CE0103960E94850065E0CE01D0
S11300C005960E9485004A9B04C0CE0101960E94B9
S11300D092004B9B04C0CE0103960E9492004C9B5D
S11300E004C0CE0105960E9492004D9BECCFCE0138
S11300F001960E94A100CE0103960E94A100CE01A8
S113010005960E94A100DFCF0895FC01608324B10D
S113011081E090E002C0880F991F6A95E2F7822B74
S113012084B9089545B121E030E0FC01008002C0AB
S1130130220F331F0A94E2F7242B25B921E02183EF
S11301400895FC0195B121E030E0008002C0220F47
S1130150331F0A94E2F72095292325B911820895C3
S1070160F894FFCF3D
S9030000FC
