:100000000C9434000C943E000C943E000C943E0082
:100010000C943E000C943E000C943E000C943E0068
:100020000C943E000C943E000C943E000C943E0058
:100030000C943E000C943E000C943E000C943E0048
:100040000C943E000C943E000C943E000C943E0038
:100050000C943E000C943E000C943E000C943E0028
:100060000C943E000C943E0011241FBECFEFD8E04C
:10007000DEBFCDBF0E9440000C9478000C940000BD
:10008000CF93DF931F92CDB7DEB7CE0101960E94CA
:100090005F00CE0101960E946000CE0101960E9491
:1000A00075001AB84A9B04C0CE0101960E947100E7
:1000B0004B9BF8CFCE0101960E947500F3CF0895B7
:1000C00084B1886084B9E0EBF0E082E080838081D5
:1000D0008064808383E08093B1008CE78093B300D9
:1000E000089583E08093B10008951092B1000895BF
:0400F000F894FFCFB2
:00000001FF
